{
  "_format": "hh-sol-artifact-1",
  "contractName": "NFTMarketPlace",
  "sourceName": "contracts/NFTMarketPlace.sol",
  "abi": [
    {
      "inputs": [
        {
          "internalType": "address",
          "name": "nftAddress",
          "type": "address"
        },
        {
          "internalType": "uint256",
          "name": "tokenId",
          "type": "uint256"
        }
      ],
      "name": "ItemAlreadyListed",
      "type": "error"
    },
    {
      "inputs": [
        {
          "internalType": "address",
          "name": "nftAddress",
          "type": "address"
        },
        {
          "internalType": "uint256",
          "name": "tokenId",
          "type": "uint256"
        }
      ],
      "name": "ItemNotListed",
      "type": "error"
    },
    {
      "inputs": [],
      "name": "NoProceeds",
      "type": "error"
    },
    {
      "inputs": [],
      "name": "NotApprovedForListing",
      "type": "error"
    },
    {
      "inputs": [],
      "name": "NotOwner",
      "type": "error"
    },
    {
      "inputs": [],
      "name": "PriceMustBeAboveZero",
      "type": "error"
    },
    {
      "inputs": [
        {
          "internalType": "address",
          "name": "nftAddress",
          "type": "address"
        },
        {
          "internalType": "uint256",
          "name": "tokenId",
          "type": "uint256"
        },
        {
          "internalType": "uint256",
          "name": "price",
          "type": "uint256"
        }
      ],
      "name": "PriceRequirementNotMeet",
      "type": "error"
    },
    {
      "inputs": [],
      "name": "ReentrancyGuardReentrantCall",
      "type": "error"
    },
    {
      "inputs": [],
      "name": "TransferFailed",
      "type": "error"
    },
    {
      "anonymous": false,
      "inputs": [
        {
          "indexed": true,
          "internalType": "address",
          "name": "seller",
          "type": "address"
        },
        {
          "indexed": true,
          "internalType": "address",
          "name": "nftAddress",
          "type": "address"
        },
        {
          "indexed": true,
          "internalType": "uint256",
          "name": "tokenId",
          "type": "uint256"
        },
        {
          "indexed": false,
          "internalType": "uint256",
          "name": "price",
          "type": "uint256"
        }
      ],
      "name": "ItemBought",
      "type": "event"
    },
    {
      "anonymous": false,
      "inputs": [
        {
          "indexed": true,
          "internalType": "address",
          "name": "seller",
          "type": "address"
        },
        {
          "indexed": true,
          "internalType": "address",
          "name": "nftAddress",
          "type": "address"
        },
        {
          "indexed": true,
          "internalType": "uint256",
          "name": "tokenId",
          "type": "uint256"
        }
      ],
      "name": "ItemCancelled",
      "type": "event"
    },
    {
      "anonymous": false,
      "inputs": [
        {
          "indexed": true,
          "internalType": "address",
          "name": "seller",
          "type": "address"
        },
        {
          "indexed": true,
          "internalType": "address",
          "name": "nftAddress",
          "type": "address"
        },
        {
          "indexed": true,
          "internalType": "uint256",
          "name": "tokenId",
          "type": "uint256"
        },
        {
          "indexed": false,
          "internalType": "uint256",
          "name": "price",
          "type": "uint256"
        }
      ],
      "name": "ItemListed",
      "type": "event"
    },
    {
      "inputs": [
        {
          "internalType": "address",
          "name": "_nftAddress",
          "type": "address"
        },
        {
          "internalType": "uint256",
          "name": "_tokenId",
          "type": "uint256"
        }
      ],
      "name": "buyItem",
      "outputs": [],
      "stateMutability": "payable",
      "type": "function"
    },
    {
      "inputs": [
        {
          "internalType": "address",
          "name": "_nftAddress",
          "type": "address"
        },
        {
          "internalType": "uint256",
          "name": "_tokenId",
          "type": "uint256"
        }
      ],
      "name": "cancelItem",
      "outputs": [],
      "stateMutability": "nonpayable",
      "type": "function"
    },
    {
      "inputs": [
        {
          "internalType": "address",
          "name": "_nftAddress",
          "type": "address"
        },
        {
          "internalType": "uint256",
          "name": "_tokenId",
          "type": "uint256"
        }
      ],
      "name": "getListing",
      "outputs": [
        {
          "components": [
            {
              "internalType": "uint256",
              "name": "price",
              "type": "uint256"
            },
            {
              "internalType": "address",
              "name": "seller",
              "type": "address"
            }
          ],
          "internalType": "struct Utils.Listing",
          "name": "",
          "type": "tuple"
        }
      ],
      "stateMutability": "view",
      "type": "function"
    },
    {
      "inputs": [
        {
          "internalType": "address",
          "name": "_seller",
          "type": "address"
        }
      ],
      "name": "getProceeds",
      "outputs": [
        {
          "internalType": "uint256",
          "name": "",
          "type": "uint256"
        }
      ],
      "stateMutability": "view",
      "type": "function"
    },
    {
      "inputs": [
        {
          "internalType": "address",
          "name": "_nftAddress",
          "type": "address"
        },
        {
          "internalType": "uint256",
          "name": "_tokenId",
          "type": "uint256"
        },
        {
          "internalType": "uint256",
          "name": "_price",
          "type": "uint256"
        }
      ],
      "name": "listItem",
      "outputs": [],
      "stateMutability": "nonpayable",
      "type": "function"
    },
    {
      "inputs": [
        {
          "internalType": "address",
          "name": "_nftAddress",
          "type": "address"
        },
        {
          "internalType": "uint256",
          "name": "_tokenId",
          "type": "uint256"
        },
        {
          "internalType": "uint256",
          "name": "_newPrice",
          "type": "uint256"
        }
      ],
      "name": "updateListing",
      "outputs": [],
      "stateMutability": "nonpayable",
      "type": "function"
    },
    {
      "inputs": [],
      "name": "withDrawProceed",
      "outputs": [],
      "stateMutability": "nonpayable",
      "type": "function"
    }
  ],
  "bytecode": "0x6080604052346200002d57620000146200003e565b6200001e62000033565b6116d36200010782396116d390f35b62000039565b60405190565b600080fd5b62000048620000ee565b565b90565b90565b90565b6200006c6200006662000072926200004a565b62000050565b6200004d565b90565b62000081600162000053565b90565b60001b90565b90620000996000199162000084565b9181191691161790565b620000bc620000b6620000c2926200004d565b62000050565b6200004d565b90565b90565b90620000e2620000dc620000ea92620000a3565b620000c5565b82546200008a565b9055565b62000104620000fc62000075565b6000620000c8565b56fe60806040526004361015610013575b610380565b61001e60003561008d565b806330cfeda91461008857806388700d1c1461008357806389bfd38f1461007e5780638f6d40d2146100795780639e02ad6e146100745780639f37092a1461006f5763f772adf10361000e5761034c565b610322565b6102ef565b6102ab565b610277565b610200565b610123565b60e01c90565b60405190565b600080fd5b600080fd5b60018060a01b031690565b6100b7906100a3565b90565b6100c3816100ae565b036100ca57565b600080fd5b905035906100dc826100ba565b565b906020828203126100f8576100f5916000016100cf565b90565b61009e565b90565b610109906100fd565b9052565b919061012190600060208501940190610100565b565b346101535761014f61013e6101393660046100de565b610403565b610146610093565b9182918261010d565b0390f35b610099565b610161816100fd565b0361016857565b600080fd5b9050359061017a82610158565b565b91906040838203126101a557806101996101a292600086016100cf565b9360200161016d565b90565b61009e565b6101b3906100fd565b9052565b6101c0906100ae565b9052565b906020806101e8936101de600082015160008601906101aa565b01519101906101b7565b565b91906101fe906000604085019401906101c4565b565b346102315761022d61021c61021636600461017c565b906105a3565b610224610093565b918291826101ea565b0390f35b610099565b909160608284031261026c5761026961025284600085016100cf565b93610260816020860161016d565b9360400161016d565b90565b61009e565b60000190565b346102a65761029061028a366004610236565b91610a81565b610298610093565b806102a281610271565b0390f35b610099565b346102da576102c46102be36600461017c565b90610cdd565b6102cc610093565b806102d681610271565b0390f35b610099565b60009103126102ea57565b61009e565b3461031d576102ff3660046102df565b610307610e8d565b61030f610093565b8061031981610271565b0390f35b610099565b61033661033036600461017c565b906112ac565b61033e610093565b8061034881610271565b0390f35b3461037b5761036561035f366004610236565b91611484565b61036d610093565b8061037781610271565b0390f35b610099565b600080fd5b600090565b90565b6103a161039c6103a6926100a3565b61038a565b6100a3565b90565b6103b29061038d565b90565b6103be906103a9565b90565b906103cb906103b5565b600052602052604060002090565b60001c90565b90565b6103ee6103f3916103d9565b6103df565b90565b61040090546103e2565b90565b61041a61041f91610412610385565b5060026103c1565b6103f6565b90565b601f801991011690565b634e487b7160e01b600052604160045260246000fd5b9061044c90610422565b810190811067ffffffffffffffff82111761046657604052565b61042c565b9061047e610477610093565b9283610442565b565b61048a604061046b565b90565b600090565b600090565b61049f610480565b90602080836104ac61048d565b8152016104b7610492565b81525050565b6104c5610497565b90565b906104d2906103b5565b600052602052604060002090565b6104f46104ef6104f9926100fd565b61038a565b6100fd565b90565b90610506906104e0565b600052602052604060002090565b9061051e906100fd565b9052565b60018060a01b031690565b61053961053e916103d9565b610522565b90565b61054b905461052d565b90565b90610558906100ae565b9052565b9061059561058c600161056d610480565b9461058661057d600083016103f6565b60008801610514565b01610541565b6020840161054e565b565b6105a09061055c565b90565b6105c8916105be6105c3926105b66104bd565b5060016104c8565b6104fc565b610597565b90565b6105d590516100fd565b90565b90565b6105ef6105ea6105f4926105d8565b61038a565b6100fd565b90565b610600906100ae565b9052565b91602061062692949361061f604082019660008301906105f7565b0190610100565b565b929190838194610657600061065161064c610645600186906104c8565b8a906104fc565b610597565b016105cb565b61066a61066460006105db565b916100fd565b1161067d575061067b939450610712565b565b85906106a061068a610093565b92839263a7e22c7360e01b845260048401610604565b0390fd5b6106ad9061038d565b90565b6106b9906106a4565b90565b6106c5906103a9565b90565b600080fd5b60e01b90565b905051906106e0826100ba565b565b906020828203126106fc576106f9916000016106d3565b90565b61009e565b610709610093565b3d6000823e3d90fd5b91908261075460208361072d61072833956106b0565b6106bc565b610749636352211e61073d610093565b958694859384936106cd565b83526004830161010d565b03915afa9081156107dd5761077c91610776916000916107af575b50926100ae565b916100ae565b0361078c5761078a926108dd565b565b610794610093565b6330cd747160e01b8152806107ab60048201610271565b0390fd5b6107d0915060203d81116107d6575b6107c88183610442565b8101906106e2565b3861076f565b503d6107be565b610701565b6107eb906103a9565b90565b6107f8604061046b565b90565b634e487b7160e01b600052600060045260246000fd5b60001b90565b9061082460001991610811565b9181191691161790565b90565b9061084661084161084d926104e0565b61082e565b8254610817565b9055565b61085b90516100ae565b90565b9061086f60018060a01b0391610811565b9181191691161790565b90565b9061089161088c610898926103b5565b610879565b825461085e565b9055565b906108c9602060016108cf946108c1600082016108bb600088016105cb565b90610831565b019201610851565b9061087c565b565b906108db9161089c565b565b9190816108f36108ed60006105db565b916100fd565b1115610a5e57610939602061090f61090a866106b0565b6106bc565b63081812fc9061092e8592610922610093565b958694859384936106cd565b83526004830161010d565b03915afa908115610a5957600091610a2b575b5061096761096161095c306107e2565b6100ae565b916100ae565b03610a08576109ad826109923361098961097f6107ee565b9360008501610514565b6020830161054e565b6109a86109a1600187906104c8565b84906104fc565b6108d1565b3392909192610a036109f16109eb6109e57fd547e933094f12a9159076970143ebe73234e64480317844b0dcb36117116de4946103b5565b946103b5565b946104e0565b946109fa610093565b9182918261010d565b0390a4565b610a10610093565b6305ba2b8760e31b815280610a2760048201610271565b0390fd5b610a4c915060203d8111610a52575b610a448183610442565b8101906106e2565b3861094c565b503d610a3a565b610701565b610a66610093565b63e1abbfc560e01b815280610a7d60048201610271565b0390fd5b90610a8c9291610628565b565b9081610acf602083610aa8610aa333956106b0565b6106bc565b610ac4636352211e610ab8610093565b958694859384936106cd565b83526004830161010d565b03915afa908115610b5857610af791610af191600091610b2a575b50926100ae565b916100ae565b03610b0757610b0591610b5d565b565b610b0f610093565b6330cd747160e01b815280610b2660048201610271565b0390fd5b610b4b915060203d8111610b51575b610b438183610442565b8101906106e2565b38610aea565b503d610b39565b610701565b9190828193610b8b6000610b85610b80610b79600186906104c8565b89906104fc565b610597565b016105cb565b610b9e610b9860006105db565b916100fd565b1115610bb25750610bb0929350610c66565b565b8490610bd5610bbf610093565b92839263b4e86d4b60e01b845260048401610604565b0390fd5b1b90565b91906008610bf9910291610bf360001984610bd9565b92610bd9565b9181191691161790565b9190610c19610c14610c21936104e0565b61082e565b908354610bdd565b9055565b610c3791610c31610385565b91610c03565b565b6001600091610c4a83808301610c25565b0155565b90600003610c6157610c5f90610c39565b565b6107fb565b90610c876000610c82610c7b600186906104c8565b84906104fc565b610c4e565b3391610cc5610cbf610cb97f6e08c1d889d309942730e4afa7963d0c5294a34a479f2c8cf39a953f287dcdee956103b5565b926103b5565b926104e0565b92610cce610093565b80610cd881610271565b0390a4565b90610ce791610a8e565b565b610cf16114bd565b610cf9610db7565b610d01611548565b565b610d0c9061038d565b90565b610d1890610d03565b90565b610d24906103a9565b90565b905090565b610d3860008092610d27565b0190565b610d4590610d2c565b90565b67ffffffffffffffff8111610d6657610d62602091610422565b0190565b61042c565b90610d7d610d7883610d48565b61046b565b918252565b606090565b3d600014610da457610d983d610d6b565b903d6000602084013e5b565b610dac610d82565b90610da2565b151590565b610dcb610dc6600233906103c1565b6103f6565b80610ddf610dd960006105db565b916100fd565b1115610e6a57600080610e4192610e09610df8836105db565b610e04600233906103c1565b610831565b610e1a610e1533610d0f565b610d1b565b90610e23610093565b9081610e2e81610d3c565b03925af1610e3a610d87565b5015610db2565b610e4757565b610e4f610093565b6312171d8360e31b815280610e6660048201610271565b0390fd5b610e72610093565b63c4d8fa8760e01b815280610e8960048201610271565b0390fd5b610e95610ce9565b565b9190828193610ec56000610ebf610eba610eb3600186906104c8565b89906104fc565b610597565b016105cb565b610ed8610ed260006105db565b916100fd565b1115610eec5750610eea929350610f13565b565b8490610f0f610ef9610093565b92839263b4e86d4b60e01b845260048401610604565b0390fd5b90610f2591610f206114bd565b6110b2565b610f2d611548565b565b604090610f59610f609496959396610f4f606084019860008501906105f7565b6020830190610100565b0190610100565b565b634e487b7160e01b600052601160045260246000fd5b610f87610f8d919392936100fd565b926100fd565b8201809211610f9857565b610f62565b67ffffffffffffffff8111610fbb57610fb7602091610422565b0190565b61042c565b90610fd2610fcd83610f9d565b61046b565b918252565b60007f53656c6c65722000000000000000000000000000000000000000000000000000910152565b6110096007610fc0565b9061101660208301610fd7565b565b611020610fff565b90565b60007f4275796572200000000000000000000000000000000000000000000000000000910152565b6110556006610fc0565b9061106260208301611023565b565b61106c61104b565b90565b600091031261107a57565b61009e565b6040906110a96110b0949695939661109f606084019860008501906105f7565b60208301906105f7565b0190610100565b565b906110d16110cc6110c5600185906104c8565b83906104fc565b610597565b90346110f06110ea6110e5600086016105cb565b6100fd565b916100fd565b106112795761112834611122611113600261110d60208801610851565b906103c1565b9161111d836103f6565b610f78565b90610831565b611148600061114361113c600187906104c8565b84906104fc565b610c4e565b61116461115760208401610851565b61115f611018565b6115e6565b61117533611170611064565b6115e6565b611186611181846106b0565b6106bc565b6342842e0e61119760208501610851565b33928492813b156112745760006111c1916111cc82966111b5610093565b988997889687956106cd565b85526004850161107f565b03925af1801561126f57611242575b506111eb600033949293016105cb565b9261123d61122b61122561121f7f263223b1dd81e51054a4e6f791d45a4a1ddb4aadcd93a2dfd892615c3fdac187946103b5565b946103b5565b946104e0565b94611234610093565b9182918261010d565b0390a4565b6112629060003d8111611268575b61125a8183610442565b81019061106f565b386111db565b503d611250565b610701565b6106c8565b6112a861128a6000859394016105cb565b611292610093565b93849363711f4b2360e01b855260048501610f2f565b0390fd5b906112b691610e97565b565b9291908381946112e760006112e16112dc6112d5600186906104c8565b8a906104fc565b610597565b016105cb565b6112fa6112f460006105db565b916100fd565b111561130e575061130c939450611335565b565b859061133161131b610093565b92839263b4e86d4b60e01b845260048401610604565b0390fd5b91908261137760208361135061134b33956106b0565b6106bc565b61136c636352211e611360610093565b958694859384936106cd565b83526004830161010d565b03915afa9081156114005761139f91611399916000916113d2575b50926100ae565b916100ae565b036113af576113ad92611405565b565b6113b7610093565b6330cd747160e01b8152806113ce60048201610271565b0390fd5b6113f3915060203d81116113f9575b6113eb8183610442565b8101906106e2565b38611392565b503d6113e1565b610701565b919061142982600061142361141c600188906104c8565b85906104fc565b01610831565b339290919261147f61146d6114676114617fd547e933094f12a9159076970143ebe73234e64480317844b0dcb36117116de4946103b5565b946103b5565b946104e0565b94611476610093565b9182918261010d565b0390a4565b9061148f92916112b8565b565b90565b6114a86114a36114ad92611491565b61038a565b6100fd565b90565b6114ba6002611494565b90565b6114c760006103f6565b6114e06114da6114d56114b0565b6100fd565b916100fd565b146114f9576114f76114f06114b0565b6000610831565b565b611501610093565b633ee5aeb560e01b81528061151860048201610271565b0390fd5b90565b61153361152e6115389261151c565b61038a565b6100fd565b90565b611545600161151f565b90565b61155a61155361153b565b6000610831565b565b5190565b60209181520190565b60005b83811061157d575050906000910152565b80602091830151818501520161156c565b6115ad6115b66020936115bb936115a48161155c565b93848093611560565b95869101611569565b610422565b0190565b929160206115dc6115e4936040870190878203600089015261158e565b9401906105f7565b565b90611621611626926116126115f9610093565b93849260046020850163319af33360e01b8152016115bf565b60208201810382520382610442565b611628565b565b61163b906116366001611669565b61168b565b565b6a636f6e736f6c652e6c6f6790565b6000809161165861163d565b602082519201905afa50565b600090565b611671611664565b5090565b634e487b7160e01b600052605160045260246000fd5b6001036116755761169b9061164c565b56fea26469706673582212208703a673487ae0f3a73e1ba7cbb47612d9bb40d088ad9865e3df507ccd2f2a9c64736f6c63430008180033",
  "linkReferences": {},
  "deployedLinkReferences": {}
}