{
  "_format": "hh-sol-artifact-1",
  "contractName": "NFTMarketPlace",
  "sourceName": "contracts/NFTMarketPlace.sol",
  "abi": [
    {
      "inputs": [
        {
          "internalType": "address",
          "name": "nftAddress",
          "type": "address"
        },
        {
          "internalType": "uint256",
          "name": "tokenId",
          "type": "uint256"
        }
      ],
      "name": "ItemAlreadyListed",
      "type": "error"
    },
    {
      "inputs": [
        {
          "internalType": "address",
          "name": "nftAddress",
          "type": "address"
        },
        {
          "internalType": "uint256",
          "name": "tokenId",
          "type": "uint256"
        }
      ],
      "name": "ItemNotListed",
      "type": "error"
    },
    {
      "inputs": [],
      "name": "NoProceeds",
      "type": "error"
    },
    {
      "inputs": [],
      "name": "NotApprovedForListing",
      "type": "error"
    },
    {
      "inputs": [],
      "name": "NotOwner",
      "type": "error"
    },
    {
      "inputs": [],
      "name": "PriceMustBeAboveZero",
      "type": "error"
    },
    {
      "inputs": [
        {
          "internalType": "address",
          "name": "nftAddress",
          "type": "address"
        },
        {
          "internalType": "uint256",
          "name": "tokenId",
          "type": "uint256"
        },
        {
          "internalType": "uint256",
          "name": "price",
          "type": "uint256"
        }
      ],
      "name": "PriceRequirementNotMeet",
      "type": "error"
    },
    {
      "inputs": [],
      "name": "ReentrancyGuardReentrantCall",
      "type": "error"
    },
    {
      "inputs": [],
      "name": "TransferFailed",
      "type": "error"
    },
    {
      "anonymous": false,
      "inputs": [
        {
          "indexed": true,
          "internalType": "address",
          "name": "seller",
          "type": "address"
        },
        {
          "indexed": true,
          "internalType": "address",
          "name": "nftAddress",
          "type": "address"
        },
        {
          "indexed": true,
          "internalType": "uint256",
          "name": "tokenId",
          "type": "uint256"
        },
        {
          "indexed": false,
          "internalType": "uint256",
          "name": "price",
          "type": "uint256"
        }
      ],
      "name": "ItemBought",
      "type": "event"
    },
    {
      "anonymous": false,
      "inputs": [
        {
          "indexed": true,
          "internalType": "address",
          "name": "seller",
          "type": "address"
        },
        {
          "indexed": true,
          "internalType": "address",
          "name": "nftAddress",
          "type": "address"
        },
        {
          "indexed": true,
          "internalType": "uint256",
          "name": "tokenId",
          "type": "uint256"
        }
      ],
      "name": "ItemCancelled",
      "type": "event"
    },
    {
      "anonymous": false,
      "inputs": [
        {
          "indexed": true,
          "internalType": "address",
          "name": "seller",
          "type": "address"
        },
        {
          "indexed": true,
          "internalType": "address",
          "name": "nftAddress",
          "type": "address"
        },
        {
          "indexed": true,
          "internalType": "uint256",
          "name": "tokenId",
          "type": "uint256"
        },
        {
          "indexed": false,
          "internalType": "uint256",
          "name": "price",
          "type": "uint256"
        }
      ],
      "name": "ItemListed",
      "type": "event"
    },
    {
      "inputs": [
        {
          "internalType": "address",
          "name": "_nftAddress",
          "type": "address"
        },
        {
          "internalType": "uint256",
          "name": "_tokenId",
          "type": "uint256"
        }
      ],
      "name": "buyItem",
      "outputs": [],
      "stateMutability": "payable",
      "type": "function"
    },
    {
      "inputs": [
        {
          "internalType": "address",
          "name": "_nftAddress",
          "type": "address"
        },
        {
          "internalType": "uint256",
          "name": "_tokenId",
          "type": "uint256"
        }
      ],
      "name": "cancelItem",
      "outputs": [],
      "stateMutability": "nonpayable",
      "type": "function"
    },
    {
      "inputs": [
        {
          "internalType": "address",
          "name": "_nftAddress",
          "type": "address"
        },
        {
          "internalType": "uint256",
          "name": "_tokenId",
          "type": "uint256"
        }
      ],
      "name": "getListing",
      "outputs": [
        {
          "components": [
            {
              "internalType": "uint256",
              "name": "price",
              "type": "uint256"
            },
            {
              "internalType": "address",
              "name": "seller",
              "type": "address"
            }
          ],
          "internalType": "struct Utils.Listing",
          "name": "",
          "type": "tuple"
        }
      ],
      "stateMutability": "view",
      "type": "function"
    },
    {
      "inputs": [
        {
          "internalType": "address",
          "name": "_seller",
          "type": "address"
        }
      ],
      "name": "getProceeds",
      "outputs": [
        {
          "internalType": "uint256",
          "name": "",
          "type": "uint256"
        }
      ],
      "stateMutability": "view",
      "type": "function"
    },
    {
      "inputs": [
        {
          "internalType": "address",
          "name": "_nftAddress",
          "type": "address"
        },
        {
          "internalType": "uint256",
          "name": "_tokenId",
          "type": "uint256"
        },
        {
          "internalType": "uint256",
          "name": "_priceInUsd",
          "type": "uint256"
        },
        {
          "internalType": "address",
          "name": "_contractAddress",
          "type": "address"
        }
      ],
      "name": "listItem",
      "outputs": [],
      "stateMutability": "nonpayable",
      "type": "function"
    },
    {
      "inputs": [
        {
          "internalType": "address",
          "name": "_nftAddress",
          "type": "address"
        },
        {
          "internalType": "uint256",
          "name": "_tokenId",
          "type": "uint256"
        },
        {
          "internalType": "uint256",
          "name": "_newPrice",
          "type": "uint256"
        }
      ],
      "name": "updateListing",
      "outputs": [],
      "stateMutability": "nonpayable",
      "type": "function"
    },
    {
      "inputs": [],
      "name": "withDrawProceed",
      "outputs": [],
      "stateMutability": "nonpayable",
      "type": "function"
    }
  ],
  "bytecode": "0x6080604052346200002d57620000146200003e565b6200001e62000033565b61173762000107823961173790f35b62000039565b60405190565b600080fd5b62000048620000ee565b565b90565b90565b90565b6200006c6200006662000072926200004a565b62000050565b6200004d565b90565b62000081600162000053565b90565b60001b90565b90620000996000199162000084565b9181191691161790565b620000bc620000b6620000c2926200004d565b62000050565b6200004d565b90565b90565b90620000e2620000dc620000ea92620000a3565b620000c5565b82546200008a565b9055565b62000104620000fc62000075565b6000620000c8565b56fe60806040526004361015610013575b6103ca565b61001e60003561008d565b806330cfeda9146100885780635930a88c1461008357806388700d1c1461007e5780638f6d40d2146100795780639e02ad6e146100745780639f37092a1461006f5763f772adf10361000e57610396565b610331565b6102fe565b6102ba565b610284565b6101c9565b610123565b60e01c90565b60405190565b600080fd5b600080fd5b60018060a01b031690565b6100b7906100a3565b90565b6100c3816100ae565b036100ca57565b600080fd5b905035906100dc826100ba565b565b906020828203126100f8576100f5916000016100cf565b90565b61009e565b90565b610109906100fd565b9052565b919061012190600060208501940190610100565b565b346101535761014f61013e6101393660046100de565b61044d565b610146610093565b9182918261010d565b0390f35b610099565b610161816100fd565b0361016857565b600080fd5b9050359061017a82610158565b565b6080818303126101be5761019382600083016100cf565b926101bb6101a4846020850161016d565b936101b2816040860161016d565b936060016100cf565b90565b61009e565b60000190565b346101fb576101e56101dc36600461017c565b92919091610a74565b6101ed610093565b806101f7816101c3565b0390f35b610099565b9190604083820312610229578061021d61022692600086016100cf565b9360200161016d565b90565b61009e565b610237906100fd565b9052565b610244906100ae565b9052565b9060208061026c936102626000820151600086019061022e565b015191019061023b565b565b919061028290600060408501940190610248565b565b346102b5576102b16102a061029a366004610200565b90610abd565b6102a8610093565b9182918261026e565b0390f35b610099565b346102e9576102d36102cd366004610200565b90610d34565b6102db610093565b806102e5816101c3565b0390f35b610099565b60009103126102f957565b61009e565b3461032c5761030e3660046102ee565b610316610ee4565b61031e610093565b80610328816101c3565b0390f35b610099565b61034561033f366004610200565b90611204565b61034d610093565b80610357816101c3565b0390f35b90916060828403126103915761038e61037784600085016100cf565b93610385816020860161016d565b9360400161016d565b90565b61009e565b346103c5576103af6103a936600461035b565b916113dc565b6103b7610093565b806103c1816101c3565b0390f35b610099565b600080fd5b600090565b90565b6103eb6103e66103f0926100a3565b6103d4565b6100a3565b90565b6103fc906103d7565b90565b610408906103f3565b90565b90610415906103ff565b600052602052604060002090565b60001c90565b90565b61043861043d91610423565b610429565b90565b61044a905461042c565b90565b6104646104699161045c6103cf565b50600261040b565b610440565b90565b90610476906103ff565b600052602052604060002090565b61049861049361049d926100fd565b6103d4565b6100fd565b90565b906104aa90610484565b600052602052604060002090565b906104c2906100fd565b9052565b60018060a01b031690565b6104dd6104e291610423565b6104c6565b90565b6104ef90546104d1565b90565b906104fc906100ae565b9052565b601f801991011690565b634e487b7160e01b600052604160045260246000fd5b9061052a90610500565b810190811067ffffffffffffffff82111761054457604052565b61050a565b9061055c610555610093565b9283610520565b565b6105686040610549565b90565b906105a461059b600161057c61055e565b9461059561058c60008301610440565b600088016104b8565b016104e5565b602084016104f2565b565b6105af9061056b565b90565b6105bc90516100fd565b90565b90565b6105d66105d16105db926105bf565b6103d4565b6100fd565b90565b6105e7906100ae565b9052565b91602061060d929493610606604082019660008301906105de565b0190610100565b565b9392919084819561063f600061063961063461062d6001869061046c565b8b906104a0565b6105a6565b016105b2565b61065261064c60006105c2565b916100fd565b1161066557506106639495506106fa565b565b8690610688610672610093565b92839263a7e22c7360e01b8452600484016105eb565b0390fd5b610695906103d7565b90565b6106a19061068c565b90565b6106ad906103f3565b90565b600080fd5b60e01b90565b905051906106c8826100ba565b565b906020828203126106e4576106e1916000016106bb565b90565b61009e565b6106f1610093565b3d6000823e3d90fd5b9291908361073d6020836107166107113395610698565b6106a4565b610732636352211e610726610093565b958694859384936106b5565b83526004830161010d565b03915afa9081156107c6576107659161075f91600091610798575b50926100ae565b916100ae565b0361077557610773936108c6565b565b61077d610093565b6330cd747160e01b815280610794600482016101c3565b0390fd5b6107b9915060203d81116107bf575b6107b18183610520565b8101906106ca565b38610758565b503d6107a7565b6106e9565b6107d4906103f3565b90565b6107e16040610549565b90565b634e487b7160e01b600052600060045260246000fd5b60001b90565b9061080d600019916107fa565b9181191691161790565b90565b9061082f61082a61083692610484565b610817565b8254610800565b9055565b61084490516100ae565b90565b9061085860018060a01b03916107fa565b9181191691161790565b90565b9061087a610875610881926103ff565b610862565b8254610847565b9055565b906108b2602060016108b8946108aa600082016108a4600088016105b2565b9061081a565b01920161083a565b90610865565b565b906108c491610885565b565b926108d19192611575565b90816108e66108e060006105c2565b916100fd565b1115610a515761092c60206109026108fd86610698565b6106a4565b63081812fc906109218592610915610093565b958694859384936106b5565b83526004830161010d565b03915afa908115610a4c57600091610a1e575b5061095a61095461094f306107cb565b6100ae565b916100ae565b036109fb576109a0826109853361097c6109726107d7565b93600085016104b8565b602083016104f2565b61099b6109946001879061046c565b84906104a0565b6108ba565b33929091926109f66109e46109de6109d87fd547e933094f12a9159076970143ebe73234e64480317844b0dcb36117116de4946103ff565b946103ff565b94610484565b946109ed610093565b9182918261010d565b0390a4565b610a03610093565b6305ba2b8760e31b815280610a1a600482016101c3565b0390fd5b610a3f915060203d8111610a45575b610a378183610520565b8101906106ca565b3861093f565b503d610a2d565b6106e9565b610a59610093565b63e1abbfc560e01b815280610a70600482016101c3565b0390fd5b90610a8093929161060f565b565b600090565b600090565b610a9461055e565b9060208083610aa1610a82565b815201610aac610a87565b81525050565b610aba610a8c565b90565b610ae291610ad8610add92610ad0610ab2565b50600161046c565b6104a0565b6105a6565b90565b9081610b26602083610aff610afa3395610698565b6106a4565b610b1b636352211e610b0f610093565b958694859384936106b5565b83526004830161010d565b03915afa908115610baf57610b4e91610b4891600091610b81575b50926100ae565b916100ae565b03610b5e57610b5c91610bb4565b565b610b66610093565b6330cd747160e01b815280610b7d600482016101c3565b0390fd5b610ba2915060203d8111610ba8575b610b9a8183610520565b8101906106ca565b38610b41565b503d610b90565b6106e9565b9190828193610be26000610bdc610bd7610bd06001869061046c565b89906104a0565b6105a6565b016105b2565b610bf5610bef60006105c2565b916100fd565b1115610c095750610c07929350610cbd565b565b8490610c2c610c16610093565b92839263b4e86d4b60e01b8452600484016105eb565b0390fd5b1b90565b91906008610c50910291610c4a60001984610c30565b92610c30565b9181191691161790565b9190610c70610c6b610c7893610484565b610817565b908354610c34565b9055565b610c8e91610c886103cf565b91610c5a565b565b6001600091610ca183808301610c7c565b0155565b90600003610cb857610cb690610c90565b565b6107e4565b90610cde6000610cd9610cd26001869061046c565b84906104a0565b610ca5565b3391610d1c610d16610d107f6e08c1d889d309942730e4afa7963d0c5294a34a479f2c8cf39a953f287dcdee956103ff565b926103ff565b92610484565b92610d25610093565b80610d2f816101c3565b0390a4565b90610d3e91610ae5565b565b610d48611662565b610d50610e0e565b610d586116ed565b565b610d63906103d7565b90565b610d6f90610d5a565b90565b610d7b906103f3565b90565b905090565b610d8f60008092610d7e565b0190565b610d9c90610d83565b90565b67ffffffffffffffff8111610dbd57610db9602091610500565b0190565b61050a565b90610dd4610dcf83610d9f565b610549565b918252565b606090565b3d600014610dfb57610def3d610dc2565b903d6000602084013e5b565b610e03610dd9565b90610df9565b151590565b610e22610e1d6002339061040b565b610440565b80610e36610e3060006105c2565b916100fd565b1115610ec157600080610e9892610e60610e4f836105c2565b610e5b6002339061040b565b61081a565b610e71610e6c33610d66565b610d72565b90610e7a610093565b9081610e8581610d93565b03925af1610e91610dde565b5015610e09565b610e9e57565b610ea6610093565b6312171d8360e31b815280610ebd600482016101c3565b0390fd5b610ec9610093565b63c4d8fa8760e01b815280610ee0600482016101c3565b0390fd5b610eec610d40565b565b9190828193610f1c6000610f16610f11610f0a6001869061046c565b89906104a0565b6105a6565b016105b2565b610f2f610f2960006105c2565b916100fd565b1115610f435750610f41929350610f6a565b565b8490610f66610f50610093565b92839263b4e86d4b60e01b8452600484016105eb565b0390fd5b90610f7c91610f77611662565b611037565b610f846116ed565b565b604090610fb0610fb79496959396610fa6606084019860008501906105de565b6020830190610100565b0190610100565b565b634e487b7160e01b600052601160045260246000fd5b610fde610fe4919392936100fd565b926100fd565b8201809211610fef57565b610fb9565b6000910312610fff57565b61009e565b60409061102e6110359496959396611024606084019860008501906105de565b60208301906105de565b0190610100565b565b9061105661105161104a6001859061046c565b83906104a0565b6105a6565b903461107561106f61106a600086016105b2565b6100fd565b916100fd565b106111d1576110ad346110a761109860026110926020880161083a565b9061040b565b916110a283610440565b610fcf565b9061081a565b6110cd60006110c86110c16001879061046c565b84906104a0565b610ca5565b6110de6110d984610698565b6106a4565b6342842e0e6110ef6020850161083a565b33928492813b156111cc57600061111991611124829661110d610093565b988997889687956106b5565b855260048501611004565b03925af180156111c75761119a575b50611143600033949293016105b2565b9261119561118361117d6111777f263223b1dd81e51054a4e6f791d45a4a1ddb4aadcd93a2dfd892615c3fdac187946103ff565b946103ff565b94610484565b9461118c610093565b9182918261010d565b0390a4565b6111ba9060003d81116111c0575b6111b28183610520565b810190610ff4565b38611133565b503d6111a8565b6106e9565b6106b0565b6112006111e26000859394016105b2565b6111ea610093565b93849363711f4b2360e01b855260048501610f86565b0390fd5b9061120e91610eee565b565b92919083819461123f600061123961123461122d6001869061046c565b8a906104a0565b6105a6565b016105b2565b61125261124c60006105c2565b916100fd565b1115611266575061126493945061128d565b565b8590611289611273610093565b92839263b4e86d4b60e01b8452600484016105eb565b0390fd5b9190826112cf6020836112a86112a33395610698565b6106a4565b6112c4636352211e6112b8610093565b958694859384936106b5565b83526004830161010d565b03915afa908115611358576112f7916112f19160009161132a575b50926100ae565b916100ae565b03611307576113059261135d565b565b61130f610093565b6330cd747160e01b815280611326600482016101c3565b0390fd5b61134b915060203d8111611351575b6113438183610520565b8101906106ca565b386112ea565b503d611339565b6106e9565b919061138182600061137b6113746001889061046c565b85906104a0565b0161081a565b33929091926113d76113c56113bf6113b97fd547e933094f12a9159076970143ebe73234e64480317844b0dcb36117116de4946103ff565b946103ff565b94610484565b946113ce610093565b9182918261010d565b0390a4565b906113e79291611210565b565b6113f2906103d7565b90565b6113fe906113e9565b90565b61140a906103f3565b90565b69ffffffffffffffffffff1690565b6114258161140d565b0361142c57565b600080fd5b9050519061143e8261141c565b565b90565b61144c81611440565b0361145357565b600080fd5b9050519061146582611443565b565b9050519061147482610158565b565b919060a0838203126114c85761148f8160008501611431565b9261149d8260208301611458565b926114c56114ae8460408501611467565b936114bc8160608601611467565b93608001611431565b90565b61009e565b6114e16114dc6114e692611440565b6103d4565b6100fd565b90565b6114f86114fe919392936100fd565b926100fd565b9161150a8382026100fd565b92818404149015171561151957565b610fb9565b90565b61153561153061153a9261151e565b6103d4565b6100fd565b90565b634e487b7160e01b600052601260045260246000fd5b61155f611565916100fd565b916100fd565b908115611570570490565b61153d565b60a061159461158f6115aa946115896103cf565b506113f5565b611401565b63feaf968c906115a2610093565b9485926106b5565b825281806115ba600482016101c3565b03915afa908115611631576115e16115e6926115fd94600080929050611600575b506114cd565b6114e9565b6115f7670de0b6b3a7640000611521565b90611553565b90565b611621915060a03d811161162a575b6116198183610520565b810190611476565b505050906115db565b503d61160f565b6106e9565b90565b61164d61164861165292611636565b6103d4565b6100fd565b90565b61165f6002611639565b90565b61166c6000610440565b61168561167f61167a611655565b6100fd565b916100fd565b1461169e5761169c611695611655565b600061081a565b565b6116a6610093565b633ee5aeb560e01b8152806116bd600482016101c3565b0390fd5b90565b6116d86116d36116dd926116c1565b6103d4565b6100fd565b90565b6116ea60016116c4565b90565b6116ff6116f86116e0565b600061081a565b56fea26469706673582212208ad30d18251e57f3b44549b314470a00901dbbac570073b05b6aafb2e5957cc964736f6c63430008180033",
  "linkReferences": {},
  "deployedLinkReferences": {}
}