{
  "contracts/NFTMarketPlace.sol": {
    "NFTMarketPlace": {
      "abi": [
        {
          "inputs": [
            {
              "internalType": "address",
              "name": "nftAddress",
              "type": "address"
            },
            {
              "internalType": "uint256",
              "name": "tokenId",
              "type": "uint256"
            }
          ],
          "name": "ItemAlreadyListed",
          "type": "error"
        },
        {
          "inputs": [
            {
              "internalType": "address",
              "name": "nftAddress",
              "type": "address"
            },
            {
              "internalType": "uint256",
              "name": "tokenId",
              "type": "uint256"
            }
          ],
          "name": "ItemNotListed",
          "type": "error"
        },
        {
          "inputs": [],
          "name": "NoProceeds",
          "type": "error"
        },
        {
          "inputs": [],
          "name": "NotApprovedForListing",
          "type": "error"
        },
        {
          "inputs": [],
          "name": "NotOwner",
          "type": "error"
        },
        {
          "inputs": [],
          "name": "PriceMustBeAboveZero",
          "type": "error"
        },
        {
          "inputs": [
            {
              "internalType": "address",
              "name": "nftAddress",
              "type": "address"
            },
            {
              "internalType": "uint256",
              "name": "tokenId",
              "type": "uint256"
            },
            {
              "internalType": "uint256",
              "name": "price",
              "type": "uint256"
            }
          ],
          "name": "PriceRequirementNotMeet",
          "type": "error"
        },
        {
          "inputs": [],
          "name": "ReentrancyGuardReentrantCall",
          "type": "error"
        },
        {
          "inputs": [],
          "name": "TransferFailed",
          "type": "error"
        },
        {
          "anonymous": false,
          "inputs": [
            {
              "indexed": true,
              "internalType": "address",
              "name": "seller",
              "type": "address"
            },
            {
              "indexed": true,
              "internalType": "address",
              "name": "nftAddress",
              "type": "address"
            },
            {
              "indexed": true,
              "internalType": "uint256",
              "name": "tokenId",
              "type": "uint256"
            },
            {
              "indexed": false,
              "internalType": "uint256",
              "name": "price",
              "type": "uint256"
            }
          ],
          "name": "ItemBought",
          "type": "event"
        },
        {
          "anonymous": false,
          "inputs": [
            {
              "indexed": true,
              "internalType": "address",
              "name": "seller",
              "type": "address"
            },
            {
              "indexed": true,
              "internalType": "address",
              "name": "nftAddress",
              "type": "address"
            },
            {
              "indexed": true,
              "internalType": "uint256",
              "name": "tokenId",
              "type": "uint256"
            }
          ],
          "name": "ItemCancelled",
          "type": "event"
        },
        {
          "anonymous": false,
          "inputs": [
            {
              "indexed": true,
              "internalType": "address",
              "name": "seller",
              "type": "address"
            },
            {
              "indexed": true,
              "internalType": "address",
              "name": "nftAddress",
              "type": "address"
            },
            {
              "indexed": true,
              "internalType": "uint256",
              "name": "tokenId",
              "type": "uint256"
            },
            {
              "indexed": false,
              "internalType": "uint256",
              "name": "price",
              "type": "uint256"
            }
          ],
          "name": "ItemListed",
          "type": "event"
        },
        {
          "inputs": [
            {
              "internalType": "address",
              "name": "_nftAddress",
              "type": "address"
            },
            {
              "internalType": "uint256",
              "name": "_tokenId",
              "type": "uint256"
            }
          ],
          "name": "buyItem",
          "outputs": [],
          "stateMutability": "payable",
          "type": "function"
        },
        {
          "inputs": [
            {
              "internalType": "address",
              "name": "_nftAddress",
              "type": "address"
            },
            {
              "internalType": "uint256",
              "name": "_tokenId",
              "type": "uint256"
            }
          ],
          "name": "cancelItem",
          "outputs": [],
          "stateMutability": "nonpayable",
          "type": "function"
        },
        {
          "inputs": [
            {
              "internalType": "address",
              "name": "_nftAddress",
              "type": "address"
            },
            {
              "internalType": "uint256",
              "name": "_tokenId",
              "type": "uint256"
            }
          ],
          "name": "getListing",
          "outputs": [
            {
              "components": [
                {
                  "internalType": "uint256",
                  "name": "price",
                  "type": "uint256"
                },
                {
                  "internalType": "address",
                  "name": "seller",
                  "type": "address"
                }
              ],
              "internalType": "struct Utils.Listing",
              "name": "",
              "type": "tuple"
            }
          ],
          "stateMutability": "view",
          "type": "function"
        },
        {
          "inputs": [
            {
              "internalType": "address",
              "name": "_seller",
              "type": "address"
            }
          ],
          "name": "getProceeds",
          "outputs": [
            {
              "internalType": "uint256",
              "name": "",
              "type": "uint256"
            }
          ],
          "stateMutability": "view",
          "type": "function"
        },
        {
          "inputs": [
            {
              "internalType": "address",
              "name": "_nftAddress",
              "type": "address"
            },
            {
              "internalType": "uint256",
              "name": "_tokenId",
              "type": "uint256"
            },
            {
              "internalType": "uint256",
              "name": "_priceInUsd",
              "type": "uint256"
            },
            {
              "internalType": "address",
              "name": "_contractAddress",
              "type": "address"
            }
          ],
          "name": "listItem",
          "outputs": [],
          "stateMutability": "nonpayable",
          "type": "function"
        },
        {
          "inputs": [
            {
              "internalType": "address",
              "name": "_nftAddress",
              "type": "address"
            },
            {
              "internalType": "uint256",
              "name": "_tokenId",
              "type": "uint256"
            },
            {
              "internalType": "uint256",
              "name": "_newPrice",
              "type": "uint256"
            }
          ],
          "name": "updateListing",
          "outputs": [],
          "stateMutability": "nonpayable",
          "type": "function"
        },
        {
          "inputs": [],
          "name": "withDrawProceed",
          "outputs": [],
          "stateMutability": "nonpayable",
          "type": "function"
        }
      ],
      "evm": {
        "bytecode": {
          "linkReferences": {},
          "object": "6080604052346200002d57620000146200003e565b6200001e62000033565b61173762000107823961173790f35b62000039565b60405190565b600080fd5b62000048620000ee565b565b90565b90565b90565b6200006c6200006662000072926200004a565b62000050565b6200004d565b90565b62000081600162000053565b90565b60001b90565b90620000996000199162000084565b9181191691161790565b620000bc620000b6620000c2926200004d565b62000050565b6200004d565b90565b90565b90620000e2620000dc620000ea92620000a3565b620000c5565b82546200008a565b9055565b62000104620000fc62000075565b6000620000c8565b56fe60806040526004361015610013575b6103ca565b61001e60003561008d565b806330cfeda9146100885780635930a88c1461008357806388700d1c1461007e5780638f6d40d2146100795780639e02ad6e146100745780639f37092a1461006f5763f772adf10361000e57610396565b610331565b6102fe565b6102ba565b610284565b6101c9565b610123565b60e01c90565b60405190565b600080fd5b600080fd5b60018060a01b031690565b6100b7906100a3565b90565b6100c3816100ae565b036100ca57565b600080fd5b905035906100dc826100ba565b565b906020828203126100f8576100f5916000016100cf565b90565b61009e565b90565b610109906100fd565b9052565b919061012190600060208501940190610100565b565b346101535761014f61013e6101393660046100de565b61044d565b610146610093565b9182918261010d565b0390f35b610099565b610161816100fd565b0361016857565b600080fd5b9050359061017a82610158565b565b6080818303126101be5761019382600083016100cf565b926101bb6101a4846020850161016d565b936101b2816040860161016d565b936060016100cf565b90565b61009e565b60000190565b346101fb576101e56101dc36600461017c565b92919091610a74565b6101ed610093565b806101f7816101c3565b0390f35b610099565b9190604083820312610229578061021d61022692600086016100cf565b9360200161016d565b90565b61009e565b610237906100fd565b9052565b610244906100ae565b9052565b9060208061026c936102626000820151600086019061022e565b015191019061023b565b565b919061028290600060408501940190610248565b565b346102b5576102b16102a061029a366004610200565b90610abd565b6102a8610093565b9182918261026e565b0390f35b610099565b346102e9576102d36102cd366004610200565b90610d34565b6102db610093565b806102e5816101c3565b0390f35b610099565b60009103126102f957565b61009e565b3461032c5761030e3660046102ee565b610316610ee4565b61031e610093565b80610328816101c3565b0390f35b610099565b61034561033f366004610200565b90611204565b61034d610093565b80610357816101c3565b0390f35b90916060828403126103915761038e61037784600085016100cf565b93610385816020860161016d565b9360400161016d565b90565b61009e565b346103c5576103af6103a936600461035b565b916113dc565b6103b7610093565b806103c1816101c3565b0390f35b610099565b600080fd5b600090565b90565b6103eb6103e66103f0926100a3565b6103d4565b6100a3565b90565b6103fc906103d7565b90565b610408906103f3565b90565b90610415906103ff565b600052602052604060002090565b60001c90565b90565b61043861043d91610423565b610429565b90565b61044a905461042c565b90565b6104646104699161045c6103cf565b50600261040b565b610440565b90565b90610476906103ff565b600052602052604060002090565b61049861049361049d926100fd565b6103d4565b6100fd565b90565b906104aa90610484565b600052602052604060002090565b906104c2906100fd565b9052565b60018060a01b031690565b6104dd6104e291610423565b6104c6565b90565b6104ef90546104d1565b90565b906104fc906100ae565b9052565b601f801991011690565b634e487b7160e01b600052604160045260246000fd5b9061052a90610500565b810190811067ffffffffffffffff82111761054457604052565b61050a565b9061055c610555610093565b9283610520565b565b6105686040610549565b90565b906105a461059b600161057c61055e565b9461059561058c60008301610440565b600088016104b8565b016104e5565b602084016104f2565b565b6105af9061056b565b90565b6105bc90516100fd565b90565b90565b6105d66105d16105db926105bf565b6103d4565b6100fd565b90565b6105e7906100ae565b9052565b91602061060d929493610606604082019660008301906105de565b0190610100565b565b9392919084819561063f600061063961063461062d6001869061046c565b8b906104a0565b6105a6565b016105b2565b61065261064c60006105c2565b916100fd565b1161066557506106639495506106fa565b565b8690610688610672610093565b92839263a7e22c7360e01b8452600484016105eb565b0390fd5b610695906103d7565b90565b6106a19061068c565b90565b6106ad906103f3565b90565b600080fd5b60e01b90565b905051906106c8826100ba565b565b906020828203126106e4576106e1916000016106bb565b90565b61009e565b6106f1610093565b3d6000823e3d90fd5b9291908361073d6020836107166107113395610698565b6106a4565b610732636352211e610726610093565b958694859384936106b5565b83526004830161010d565b03915afa9081156107c6576107659161075f91600091610798575b50926100ae565b916100ae565b0361077557610773936108c6565b565b61077d610093565b6330cd747160e01b815280610794600482016101c3565b0390fd5b6107b9915060203d81116107bf575b6107b18183610520565b8101906106ca565b38610758565b503d6107a7565b6106e9565b6107d4906103f3565b90565b6107e16040610549565b90565b634e487b7160e01b600052600060045260246000fd5b60001b90565b9061080d600019916107fa565b9181191691161790565b90565b9061082f61082a61083692610484565b610817565b8254610800565b9055565b61084490516100ae565b90565b9061085860018060a01b03916107fa565b9181191691161790565b90565b9061087a610875610881926103ff565b610862565b8254610847565b9055565b906108b2602060016108b8946108aa600082016108a4600088016105b2565b9061081a565b01920161083a565b90610865565b565b906108c491610885565b565b926108d19192611575565b90816108e66108e060006105c2565b916100fd565b1115610a515761092c60206109026108fd86610698565b6106a4565b63081812fc906109218592610915610093565b958694859384936106b5565b83526004830161010d565b03915afa908115610a4c57600091610a1e575b5061095a61095461094f306107cb565b6100ae565b916100ae565b036109fb576109a0826109853361097c6109726107d7565b93600085016104b8565b602083016104f2565b61099b6109946001879061046c565b84906104a0565b6108ba565b33929091926109f66109e46109de6109d87fd547e933094f12a9159076970143ebe73234e64480317844b0dcb36117116de4946103ff565b946103ff565b94610484565b946109ed610093565b9182918261010d565b0390a4565b610a03610093565b6305ba2b8760e31b815280610a1a600482016101c3565b0390fd5b610a3f915060203d8111610a45575b610a378183610520565b8101906106ca565b3861093f565b503d610a2d565b6106e9565b610a59610093565b63e1abbfc560e01b815280610a70600482016101c3565b0390fd5b90610a8093929161060f565b565b600090565b600090565b610a9461055e565b9060208083610aa1610a82565b815201610aac610a87565b81525050565b610aba610a8c565b90565b610ae291610ad8610add92610ad0610ab2565b50600161046c565b6104a0565b6105a6565b90565b9081610b26602083610aff610afa3395610698565b6106a4565b610b1b636352211e610b0f610093565b958694859384936106b5565b83526004830161010d565b03915afa908115610baf57610b4e91610b4891600091610b81575b50926100ae565b916100ae565b03610b5e57610b5c91610bb4565b565b610b66610093565b6330cd747160e01b815280610b7d600482016101c3565b0390fd5b610ba2915060203d8111610ba8575b610b9a8183610520565b8101906106ca565b38610b41565b503d610b90565b6106e9565b9190828193610be26000610bdc610bd7610bd06001869061046c565b89906104a0565b6105a6565b016105b2565b610bf5610bef60006105c2565b916100fd565b1115610c095750610c07929350610cbd565b565b8490610c2c610c16610093565b92839263b4e86d4b60e01b8452600484016105eb565b0390fd5b1b90565b91906008610c50910291610c4a60001984610c30565b92610c30565b9181191691161790565b9190610c70610c6b610c7893610484565b610817565b908354610c34565b9055565b610c8e91610c886103cf565b91610c5a565b565b6001600091610ca183808301610c7c565b0155565b90600003610cb857610cb690610c90565b565b6107e4565b90610cde6000610cd9610cd26001869061046c565b84906104a0565b610ca5565b3391610d1c610d16610d107f6e08c1d889d309942730e4afa7963d0c5294a34a479f2c8cf39a953f287dcdee956103ff565b926103ff565b92610484565b92610d25610093565b80610d2f816101c3565b0390a4565b90610d3e91610ae5565b565b610d48611662565b610d50610e0e565b610d586116ed565b565b610d63906103d7565b90565b610d6f90610d5a565b90565b610d7b906103f3565b90565b905090565b610d8f60008092610d7e565b0190565b610d9c90610d83565b90565b67ffffffffffffffff8111610dbd57610db9602091610500565b0190565b61050a565b90610dd4610dcf83610d9f565b610549565b918252565b606090565b3d600014610dfb57610def3d610dc2565b903d6000602084013e5b565b610e03610dd9565b90610df9565b151590565b610e22610e1d6002339061040b565b610440565b80610e36610e3060006105c2565b916100fd565b1115610ec157600080610e9892610e60610e4f836105c2565b610e5b6002339061040b565b61081a565b610e71610e6c33610d66565b610d72565b90610e7a610093565b9081610e8581610d93565b03925af1610e91610dde565b5015610e09565b610e9e57565b610ea6610093565b6312171d8360e31b815280610ebd600482016101c3565b0390fd5b610ec9610093565b63c4d8fa8760e01b815280610ee0600482016101c3565b0390fd5b610eec610d40565b565b9190828193610f1c6000610f16610f11610f0a6001869061046c565b89906104a0565b6105a6565b016105b2565b610f2f610f2960006105c2565b916100fd565b1115610f435750610f41929350610f6a565b565b8490610f66610f50610093565b92839263b4e86d4b60e01b8452600484016105eb565b0390fd5b90610f7c91610f77611662565b611037565b610f846116ed565b565b604090610fb0610fb79496959396610fa6606084019860008501906105de565b6020830190610100565b0190610100565b565b634e487b7160e01b600052601160045260246000fd5b610fde610fe4919392936100fd565b926100fd565b8201809211610fef57565b610fb9565b6000910312610fff57565b61009e565b60409061102e6110359496959396611024606084019860008501906105de565b60208301906105de565b0190610100565b565b9061105661105161104a6001859061046c565b83906104a0565b6105a6565b903461107561106f61106a600086016105b2565b6100fd565b916100fd565b106111d1576110ad346110a761109860026110926020880161083a565b9061040b565b916110a283610440565b610fcf565b9061081a565b6110cd60006110c86110c16001879061046c565b84906104a0565b610ca5565b6110de6110d984610698565b6106a4565b6342842e0e6110ef6020850161083a565b33928492813b156111cc57600061111991611124829661110d610093565b988997889687956106b5565b855260048501611004565b03925af180156111c75761119a575b50611143600033949293016105b2565b9261119561118361117d6111777f263223b1dd81e51054a4e6f791d45a4a1ddb4aadcd93a2dfd892615c3fdac187946103ff565b946103ff565b94610484565b9461118c610093565b9182918261010d565b0390a4565b6111ba9060003d81116111c0575b6111b28183610520565b810190610ff4565b38611133565b503d6111a8565b6106e9565b6106b0565b6112006111e26000859394016105b2565b6111ea610093565b93849363711f4b2360e01b855260048501610f86565b0390fd5b9061120e91610eee565b565b92919083819461123f600061123961123461122d6001869061046c565b8a906104a0565b6105a6565b016105b2565b61125261124c60006105c2565b916100fd565b1115611266575061126493945061128d565b565b8590611289611273610093565b92839263b4e86d4b60e01b8452600484016105eb565b0390fd5b9190826112cf6020836112a86112a33395610698565b6106a4565b6112c4636352211e6112b8610093565b958694859384936106b5565b83526004830161010d565b03915afa908115611358576112f7916112f19160009161132a575b50926100ae565b916100ae565b03611307576113059261135d565b565b61130f610093565b6330cd747160e01b815280611326600482016101c3565b0390fd5b61134b915060203d8111611351575b6113438183610520565b8101906106ca565b386112ea565b503d611339565b6106e9565b919061138182600061137b6113746001889061046c565b85906104a0565b0161081a565b33929091926113d76113c56113bf6113b97fd547e933094f12a9159076970143ebe73234e64480317844b0dcb36117116de4946103ff565b946103ff565b94610484565b946113ce610093565b9182918261010d565b0390a4565b906113e79291611210565b565b6113f2906103d7565b90565b6113fe906113e9565b90565b61140a906103f3565b90565b69ffffffffffffffffffff1690565b6114258161140d565b0361142c57565b600080fd5b9050519061143e8261141c565b565b90565b61144c81611440565b0361145357565b600080fd5b9050519061146582611443565b565b9050519061147482610158565b565b919060a0838203126114c85761148f8160008501611431565b9261149d8260208301611458565b926114c56114ae8460408501611467565b936114bc8160608601611467565b93608001611431565b90565b61009e565b6114e16114dc6114e692611440565b6103d4565b6100fd565b90565b6114f86114fe919392936100fd565b926100fd565b9161150a8382026100fd565b92818404149015171561151957565b610fb9565b90565b61153561153061153a9261151e565b6103d4565b6100fd565b90565b634e487b7160e01b600052601260045260246000fd5b61155f611565916100fd565b916100fd565b908115611570570490565b61153d565b60a061159461158f6115aa946115896103cf565b506113f5565b611401565b63feaf968c906115a2610093565b9485926106b5565b825281806115ba600482016101c3565b03915afa908115611631576115e16115e6926115fd94600080929050611600575b506114cd565b6114e9565b6115f7670de0b6b3a7640000611521565b90611553565b90565b611621915060a03d811161162a575b6116198183610520565b810190611476565b505050906115db565b503d61160f565b6106e9565b90565b61164d61164861165292611636565b6103d4565b6100fd565b90565b61165f6002611639565b90565b61166c6000610440565b61168561167f61167a611655565b6100fd565b916100fd565b1461169e5761169c611695611655565b600061081a565b565b6116a6610093565b633ee5aeb560e01b8152806116bd600482016101c3565b0390fd5b90565b6116d86116d36116dd926116c1565b6103d4565b6100fd565b90565b6116ea60016116c4565b90565b6116ff6116f86116e0565b600061081a565b56fea26469706673582212208ad30d18251e57f3b44549b314470a00901dbbac570073b05b6aafb2e5957cc964736f6c63430008180033",
          "opcodes": "PUSH1 0x80 PUSH1 0x40 MSTORE CALLVALUE PUSH3 0x2D JUMPI PUSH3 0x14 PUSH3 0x3E JUMP JUMPDEST PUSH3 0x1E PUSH3 0x33 JUMP JUMPDEST PUSH2 0x1737 PUSH3 0x107 DUP3 CODECOPY PUSH2 0x1737 SWAP1 RETURN JUMPDEST PUSH3 0x39 JUMP JUMPDEST PUSH1 0x40 MLOAD SWAP1 JUMP JUMPDEST PUSH1 0x0 DUP1 REVERT JUMPDEST PUSH3 0x48 PUSH3 0xEE JUMP JUMPDEST JUMP JUMPDEST SWAP1 JUMP JUMPDEST SWAP1 JUMP JUMPDEST SWAP1 JUMP JUMPDEST PUSH3 0x6C PUSH3 0x66 PUSH3 0x72 SWAP3 PUSH3 0x4A JUMP JUMPDEST PUSH3 0x50 JUMP JUMPDEST PUSH3 0x4D JUMP JUMPDEST SWAP1 JUMP JUMPDEST PUSH3 0x81 PUSH1 0x1 PUSH3 0x53 JUMP JUMPDEST SWAP1 JUMP JUMPDEST PUSH1 0x0 SHL SWAP1 JUMP JUMPDEST SWAP1 PUSH3 0x99 PUSH1 0x0 NOT SWAP2 PUSH3 0x84 JUMP JUMPDEST SWAP2 DUP2 NOT AND SWAP2 AND OR SWAP1 JUMP JUMPDEST PUSH3 0xBC PUSH3 0xB6 PUSH3 0xC2 SWAP3 PUSH3 0x4D JUMP JUMPDEST PUSH3 0x50 JUMP JUMPDEST PUSH3 0x4D JUMP JUMPDEST SWAP1 JUMP JUMPDEST SWAP1 JUMP JUMPDEST SWAP1 PUSH3 0xE2 PUSH3 0xDC PUSH3 0xEA SWAP3 PUSH3 0xA3 JUMP JUMPDEST PUSH3 0xC5 JUMP JUMPDEST DUP3 SLOAD PUSH3 0x8A JUMP JUMPDEST SWAP1 SSTORE JUMP JUMPDEST PUSH3 0x104 PUSH3 0xFC PUSH3 0x75 JUMP JUMPDEST PUSH1 0x0 PUSH3 0xC8 JUMP JUMPDEST JUMP INVALID PUSH1 0x80 PUSH1 0x40 MSTORE PUSH1 0x4 CALLDATASIZE LT ISZERO PUSH2 0x13 JUMPI JUMPDEST PUSH2 0x3CA JUMP JUMPDEST PUSH2 0x1E PUSH1 0x0 CALLDATALOAD PUSH2 0x8D JUMP JUMPDEST DUP1 PUSH4 0x30CFEDA9 EQ PUSH2 0x88 JUMPI DUP1 PUSH4 0x5930A88C EQ PUSH2 0x83 JUMPI DUP1 PUSH4 0x88700D1C EQ PUSH2 0x7E JUMPI DUP1 PUSH4 0x8F6D40D2 EQ PUSH2 0x79 JUMPI DUP1 PUSH4 0x9E02AD6E EQ PUSH2 0x74 JUMPI DUP1 PUSH4 0x9F37092A EQ PUSH2 0x6F JUMPI PUSH4 0xF772ADF1 SUB PUSH2 0xE JUMPI PUSH2 0x396 JUMP JUMPDEST PUSH2 0x331 JUMP JUMPDEST PUSH2 0x2FE JUMP JUMPDEST PUSH2 0x2BA JUMP JUMPDEST PUSH2 0x284 JUMP JUMPDEST PUSH2 0x1C9 JUMP JUMPDEST PUSH2 0x123 JUMP JUMPDEST PUSH1 0xE0 SHR SWAP1 JUMP JUMPDEST PUSH1 0x40 MLOAD SWAP1 JUMP JUMPDEST PUSH1 0x0 DUP1 REVERT JUMPDEST PUSH1 0x0 DUP1 REVERT JUMPDEST PUSH1 0x1 DUP1 PUSH1 0xA0 SHL SUB AND SWAP1 JUMP JUMPDEST PUSH2 0xB7 SWAP1 PUSH2 0xA3 JUMP JUMPDEST SWAP1 JUMP JUMPDEST PUSH2 0xC3 DUP2 PUSH2 0xAE JUMP JUMPDEST SUB PUSH2 0xCA JUMPI JUMP JUMPDEST PUSH1 0x0 DUP1 REVERT JUMPDEST SWAP1 POP CALLDATALOAD SWAP1 PUSH2 0xDC DUP3 PUSH2 0xBA JUMP JUMPDEST JUMP JUMPDEST SWAP1 PUSH1 0x20 DUP3 DUP3 SUB SLT PUSH2 0xF8 JUMPI PUSH2 0xF5 SWAP2 PUSH1 0x0 ADD PUSH2 0xCF JUMP JUMPDEST SWAP1 JUMP JUMPDEST PUSH2 0x9E JUMP JUMPDEST SWAP1 JUMP JUMPDEST PUSH2 0x109 SWAP1 PUSH2 0xFD JUMP JUMPDEST SWAP1 MSTORE JUMP JUMPDEST SWAP2 SWAP1 PUSH2 0x121 SWAP1 PUSH1 0x0 PUSH1 0x20 DUP6 ADD SWAP5 ADD SWAP1 PUSH2 0x100 JUMP JUMPDEST JUMP JUMPDEST CALLVALUE PUSH2 0x153 JUMPI PUSH2 0x14F PUSH2 0x13E PUSH2 0x139 CALLDATASIZE PUSH1 0x4 PUSH2 0xDE JUMP JUMPDEST PUSH2 0x44D JUMP JUMPDEST PUSH2 0x146 PUSH2 0x93 JUMP JUMPDEST SWAP2 DUP3 SWAP2 DUP3 PUSH2 0x10D JUMP JUMPDEST SUB SWAP1 RETURN JUMPDEST PUSH2 0x99 JUMP JUMPDEST PUSH2 0x161 DUP2 PUSH2 0xFD JUMP JUMPDEST SUB PUSH2 0x168 JUMPI JUMP JUMPDEST PUSH1 0x0 DUP1 REVERT JUMPDEST SWAP1 POP CALLDATALOAD SWAP1 PUSH2 0x17A DUP3 PUSH2 0x158 JUMP JUMPDEST JUMP JUMPDEST PUSH1 0x80 DUP2 DUP4 SUB SLT PUSH2 0x1BE JUMPI PUSH2 0x193 DUP3 PUSH1 0x0 DUP4 ADD PUSH2 0xCF JUMP JUMPDEST SWAP3 PUSH2 0x1BB PUSH2 0x1A4 DUP5 PUSH1 0x20 DUP6 ADD PUSH2 0x16D JUMP JUMPDEST SWAP4 PUSH2 0x1B2 DUP2 PUSH1 0x40 DUP7 ADD PUSH2 0x16D JUMP JUMPDEST SWAP4 PUSH1 0x60 ADD PUSH2 0xCF JUMP JUMPDEST SWAP1 JUMP JUMPDEST PUSH2 0x9E JUMP JUMPDEST PUSH1 0x0 ADD SWAP1 JUMP JUMPDEST CALLVALUE PUSH2 0x1FB JUMPI PUSH2 0x1E5 PUSH2 0x1DC CALLDATASIZE PUSH1 0x4 PUSH2 0x17C JUMP JUMPDEST SWAP3 SWAP2 SWAP1 SWAP2 PUSH2 0xA74 JUMP JUMPDEST PUSH2 0x1ED PUSH2 0x93 JUMP JUMPDEST DUP1 PUSH2 0x1F7 DUP2 PUSH2 0x1C3 JUMP JUMPDEST SUB SWAP1 RETURN JUMPDEST PUSH2 0x99 JUMP JUMPDEST SWAP2 SWAP1 PUSH1 0x40 DUP4 DUP3 SUB SLT PUSH2 0x229 JUMPI DUP1 PUSH2 0x21D PUSH2 0x226 SWAP3 PUSH1 0x0 DUP7 ADD PUSH2 0xCF JUMP JUMPDEST SWAP4 PUSH1 0x20 ADD PUSH2 0x16D JUMP JUMPDEST SWAP1 JUMP JUMPDEST PUSH2 0x9E JUMP JUMPDEST PUSH2 0x237 SWAP1 PUSH2 0xFD JUMP JUMPDEST SWAP1 MSTORE JUMP JUMPDEST PUSH2 0x244 SWAP1 PUSH2 0xAE JUMP JUMPDEST SWAP1 MSTORE JUMP JUMPDEST SWAP1 PUSH1 0x20 DUP1 PUSH2 0x26C SWAP4 PUSH2 0x262 PUSH1 0x0 DUP3 ADD MLOAD PUSH1 0x0 DUP7 ADD SWAP1 PUSH2 0x22E JUMP JUMPDEST ADD MLOAD SWAP2 ADD SWAP1 PUSH2 0x23B JUMP JUMPDEST JUMP JUMPDEST SWAP2 SWAP1 PUSH2 0x282 SWAP1 PUSH1 0x0 PUSH1 0x40 DUP6 ADD SWAP5 ADD SWAP1 PUSH2 0x248 JUMP JUMPDEST JUMP JUMPDEST CALLVALUE PUSH2 0x2B5 JUMPI PUSH2 0x2B1 PUSH2 0x2A0 PUSH2 0x29A CALLDATASIZE PUSH1 0x4 PUSH2 0x200 JUMP JUMPDEST SWAP1 PUSH2 0xABD JUMP JUMPDEST PUSH2 0x2A8 PUSH2 0x93 JUMP JUMPDEST SWAP2 DUP3 SWAP2 DUP3 PUSH2 0x26E JUMP JUMPDEST SUB SWAP1 RETURN JUMPDEST PUSH2 0x99 JUMP JUMPDEST CALLVALUE PUSH2 0x2E9 JUMPI PUSH2 0x2D3 PUSH2 0x2CD CALLDATASIZE PUSH1 0x4 PUSH2 0x200 JUMP JUMPDEST SWAP1 PUSH2 0xD34 JUMP JUMPDEST PUSH2 0x2DB PUSH2 0x93 JUMP JUMPDEST DUP1 PUSH2 0x2E5 DUP2 PUSH2 0x1C3 JUMP JUMPDEST SUB SWAP1 RETURN JUMPDEST PUSH2 0x99 JUMP JUMPDEST PUSH1 0x0 SWAP2 SUB SLT PUSH2 0x2F9 JUMPI JUMP JUMPDEST PUSH2 0x9E JUMP JUMPDEST CALLVALUE PUSH2 0x32C JUMPI PUSH2 0x30E CALLDATASIZE PUSH1 0x4 PUSH2 0x2EE JUMP JUMPDEST PUSH2 0x316 PUSH2 0xEE4 JUMP JUMPDEST PUSH2 0x31E PUSH2 0x93 JUMP JUMPDEST DUP1 PUSH2 0x328 DUP2 PUSH2 0x1C3 JUMP JUMPDEST SUB SWAP1 RETURN JUMPDEST PUSH2 0x99 JUMP JUMPDEST PUSH2 0x345 PUSH2 0x33F CALLDATASIZE PUSH1 0x4 PUSH2 0x200 JUMP JUMPDEST SWAP1 PUSH2 0x1204 JUMP JUMPDEST PUSH2 0x34D PUSH2 0x93 JUMP JUMPDEST DUP1 PUSH2 0x357 DUP2 PUSH2 0x1C3 JUMP JUMPDEST SUB SWAP1 RETURN JUMPDEST SWAP1 SWAP2 PUSH1 0x60 DUP3 DUP5 SUB SLT PUSH2 0x391 JUMPI PUSH2 0x38E PUSH2 0x377 DUP5 PUSH1 0x0 DUP6 ADD PUSH2 0xCF JUMP JUMPDEST SWAP4 PUSH2 0x385 DUP2 PUSH1 0x20 DUP7 ADD PUSH2 0x16D JUMP JUMPDEST SWAP4 PUSH1 0x40 ADD PUSH2 0x16D JUMP JUMPDEST SWAP1 JUMP JUMPDEST PUSH2 0x9E JUMP JUMPDEST CALLVALUE PUSH2 0x3C5 JUMPI PUSH2 0x3AF PUSH2 0x3A9 CALLDATASIZE PUSH1 0x4 PUSH2 0x35B JUMP JUMPDEST SWAP2 PUSH2 0x13DC JUMP JUMPDEST PUSH2 0x3B7 PUSH2 0x93 JUMP JUMPDEST DUP1 PUSH2 0x3C1 DUP2 PUSH2 0x1C3 JUMP JUMPDEST SUB SWAP1 RETURN JUMPDEST PUSH2 0x99 JUMP JUMPDEST PUSH1 0x0 DUP1 REVERT JUMPDEST PUSH1 0x0 SWAP1 JUMP JUMPDEST SWAP1 JUMP JUMPDEST PUSH2 0x3EB PUSH2 0x3E6 PUSH2 0x3F0 SWAP3 PUSH2 0xA3 JUMP JUMPDEST PUSH2 0x3D4 JUMP JUMPDEST PUSH2 0xA3 JUMP JUMPDEST SWAP1 JUMP JUMPDEST PUSH2 0x3FC SWAP1 PUSH2 0x3D7 JUMP JUMPDEST SWAP1 JUMP JUMPDEST PUSH2 0x408 SWAP1 PUSH2 0x3F3 JUMP JUMPDEST SWAP1 JUMP JUMPDEST SWAP1 PUSH2 0x415 SWAP1 PUSH2 0x3FF JUMP JUMPDEST PUSH1 0x0 MSTORE PUSH1 0x20 MSTORE PUSH1 0x40 PUSH1 0x0 KECCAK256 SWAP1 JUMP JUMPDEST PUSH1 0x0 SHR SWAP1 JUMP JUMPDEST SWAP1 JUMP JUMPDEST PUSH2 0x438 PUSH2 0x43D SWAP2 PUSH2 0x423 JUMP JUMPDEST PUSH2 0x429 JUMP JUMPDEST SWAP1 JUMP JUMPDEST PUSH2 0x44A SWAP1 SLOAD PUSH2 0x42C JUMP JUMPDEST SWAP1 JUMP JUMPDEST PUSH2 0x464 PUSH2 0x469 SWAP2 PUSH2 0x45C PUSH2 0x3CF JUMP JUMPDEST POP PUSH1 0x2 PUSH2 0x40B JUMP JUMPDEST PUSH2 0x440 JUMP JUMPDEST SWAP1 JUMP JUMPDEST SWAP1 PUSH2 0x476 SWAP1 PUSH2 0x3FF JUMP JUMPDEST PUSH1 0x0 MSTORE PUSH1 0x20 MSTORE PUSH1 0x40 PUSH1 0x0 KECCAK256 SWAP1 JUMP JUMPDEST PUSH2 0x498 PUSH2 0x493 PUSH2 0x49D SWAP3 PUSH2 0xFD JUMP JUMPDEST PUSH2 0x3D4 JUMP JUMPDEST PUSH2 0xFD JUMP JUMPDEST SWAP1 JUMP JUMPDEST SWAP1 PUSH2 0x4AA SWAP1 PUSH2 0x484 JUMP JUMPDEST PUSH1 0x0 MSTORE PUSH1 0x20 MSTORE PUSH1 0x40 PUSH1 0x0 KECCAK256 SWAP1 JUMP JUMPDEST SWAP1 PUSH2 0x4C2 SWAP1 PUSH2 0xFD JUMP JUMPDEST SWAP1 MSTORE JUMP JUMPDEST PUSH1 0x1 DUP1 PUSH1 0xA0 SHL SUB AND SWAP1 JUMP JUMPDEST PUSH2 0x4DD PUSH2 0x4E2 SWAP2 PUSH2 0x423 JUMP JUMPDEST PUSH2 0x4C6 JUMP JUMPDEST SWAP1 JUMP JUMPDEST PUSH2 0x4EF SWAP1 SLOAD PUSH2 0x4D1 JUMP JUMPDEST SWAP1 JUMP JUMPDEST SWAP1 PUSH2 0x4FC SWAP1 PUSH2 0xAE JUMP JUMPDEST SWAP1 MSTORE JUMP JUMPDEST PUSH1 0x1F DUP1 NOT SWAP2 ADD AND SWAP1 JUMP JUMPDEST PUSH4 0x4E487B71 PUSH1 0xE0 SHL PUSH1 0x0 MSTORE PUSH1 0x41 PUSH1 0x4 MSTORE PUSH1 0x24 PUSH1 0x0 REVERT JUMPDEST SWAP1 PUSH2 0x52A SWAP1 PUSH2 0x500 JUMP JUMPDEST DUP2 ADD SWAP1 DUP2 LT PUSH8 0xFFFFFFFFFFFFFFFF DUP3 GT OR PUSH2 0x544 JUMPI PUSH1 0x40 MSTORE JUMP JUMPDEST PUSH2 0x50A JUMP JUMPDEST SWAP1 PUSH2 0x55C PUSH2 0x555 PUSH2 0x93 JUMP JUMPDEST SWAP3 DUP4 PUSH2 0x520 JUMP JUMPDEST JUMP JUMPDEST PUSH2 0x568 PUSH1 0x40 PUSH2 0x549 JUMP JUMPDEST SWAP1 JUMP JUMPDEST SWAP1 PUSH2 0x5A4 PUSH2 0x59B PUSH1 0x1 PUSH2 0x57C PUSH2 0x55E JUMP JUMPDEST SWAP5 PUSH2 0x595 PUSH2 0x58C PUSH1 0x0 DUP4 ADD PUSH2 0x440 JUMP JUMPDEST PUSH1 0x0 DUP9 ADD PUSH2 0x4B8 JUMP JUMPDEST ADD PUSH2 0x4E5 JUMP JUMPDEST PUSH1 0x20 DUP5 ADD PUSH2 0x4F2 JUMP JUMPDEST JUMP JUMPDEST PUSH2 0x5AF SWAP1 PUSH2 0x56B JUMP JUMPDEST SWAP1 JUMP JUMPDEST PUSH2 0x5BC SWAP1 MLOAD PUSH2 0xFD JUMP JUMPDEST SWAP1 JUMP JUMPDEST SWAP1 JUMP JUMPDEST PUSH2 0x5D6 PUSH2 0x5D1 PUSH2 0x5DB SWAP3 PUSH2 0x5BF JUMP JUMPDEST PUSH2 0x3D4 JUMP JUMPDEST PUSH2 0xFD JUMP JUMPDEST SWAP1 JUMP JUMPDEST PUSH2 0x5E7 SWAP1 PUSH2 0xAE JUMP JUMPDEST SWAP1 MSTORE JUMP JUMPDEST SWAP2 PUSH1 0x20 PUSH2 0x60D SWAP3 SWAP5 SWAP4 PUSH2 0x606 PUSH1 0x40 DUP3 ADD SWAP7 PUSH1 0x0 DUP4 ADD SWAP1 PUSH2 0x5DE JUMP JUMPDEST ADD SWAP1 PUSH2 0x100 JUMP JUMPDEST JUMP JUMPDEST SWAP4 SWAP3 SWAP2 SWAP1 DUP5 DUP2 SWAP6 PUSH2 0x63F PUSH1 0x0 PUSH2 0x639 PUSH2 0x634 PUSH2 0x62D PUSH1 0x1 DUP7 SWAP1 PUSH2 0x46C JUMP JUMPDEST DUP12 SWAP1 PUSH2 0x4A0 JUMP JUMPDEST PUSH2 0x5A6 JUMP JUMPDEST ADD PUSH2 0x5B2 JUMP JUMPDEST PUSH2 0x652 PUSH2 0x64C PUSH1 0x0 PUSH2 0x5C2 JUMP JUMPDEST SWAP2 PUSH2 0xFD JUMP JUMPDEST GT PUSH2 0x665 JUMPI POP PUSH2 0x663 SWAP5 SWAP6 POP PUSH2 0x6FA JUMP JUMPDEST JUMP JUMPDEST DUP7 SWAP1 PUSH2 0x688 PUSH2 0x672 PUSH2 0x93 JUMP JUMPDEST SWAP3 DUP4 SWAP3 PUSH4 0xA7E22C73 PUSH1 0xE0 SHL DUP5 MSTORE PUSH1 0x4 DUP5 ADD PUSH2 0x5EB JUMP JUMPDEST SUB SWAP1 REVERT JUMPDEST PUSH2 0x695 SWAP1 PUSH2 0x3D7 JUMP JUMPDEST SWAP1 JUMP JUMPDEST PUSH2 0x6A1 SWAP1 PUSH2 0x68C JUMP JUMPDEST SWAP1 JUMP JUMPDEST PUSH2 0x6AD SWAP1 PUSH2 0x3F3 JUMP JUMPDEST SWAP1 JUMP JUMPDEST PUSH1 0x0 DUP1 REVERT JUMPDEST PUSH1 0xE0 SHL SWAP1 JUMP JUMPDEST SWAP1 POP MLOAD SWAP1 PUSH2 0x6C8 DUP3 PUSH2 0xBA JUMP JUMPDEST JUMP JUMPDEST SWAP1 PUSH1 0x20 DUP3 DUP3 SUB SLT PUSH2 0x6E4 JUMPI PUSH2 0x6E1 SWAP2 PUSH1 0x0 ADD PUSH2 0x6BB JUMP JUMPDEST SWAP1 JUMP JUMPDEST PUSH2 0x9E JUMP JUMPDEST PUSH2 0x6F1 PUSH2 0x93 JUMP JUMPDEST RETURNDATASIZE PUSH1 0x0 DUP3 RETURNDATACOPY RETURNDATASIZE SWAP1 REVERT JUMPDEST SWAP3 SWAP2 SWAP1 DUP4 PUSH2 0x73D PUSH1 0x20 DUP4 PUSH2 0x716 PUSH2 0x711 CALLER SWAP6 PUSH2 0x698 JUMP JUMPDEST PUSH2 0x6A4 JUMP JUMPDEST PUSH2 0x732 PUSH4 0x6352211E PUSH2 0x726 PUSH2 0x93 JUMP JUMPDEST SWAP6 DUP7 SWAP5 DUP6 SWAP4 DUP5 SWAP4 PUSH2 0x6B5 JUMP JUMPDEST DUP4 MSTORE PUSH1 0x4 DUP4 ADD PUSH2 0x10D JUMP JUMPDEST SUB SWAP2 GAS STATICCALL SWAP1 DUP2 ISZERO PUSH2 0x7C6 JUMPI PUSH2 0x765 SWAP2 PUSH2 0x75F SWAP2 PUSH1 0x0 SWAP2 PUSH2 0x798 JUMPI JUMPDEST POP SWAP3 PUSH2 0xAE JUMP JUMPDEST SWAP2 PUSH2 0xAE JUMP JUMPDEST SUB PUSH2 0x775 JUMPI PUSH2 0x773 SWAP4 PUSH2 0x8C6 JUMP JUMPDEST JUMP JUMPDEST PUSH2 0x77D PUSH2 0x93 JUMP JUMPDEST PUSH4 0x30CD7471 PUSH1 0xE0 SHL DUP2 MSTORE DUP1 PUSH2 0x794 PUSH1 0x4 DUP3 ADD PUSH2 0x1C3 JUMP JUMPDEST SUB SWAP1 REVERT JUMPDEST PUSH2 0x7B9 SWAP2 POP PUSH1 0x20 RETURNDATASIZE DUP2 GT PUSH2 0x7BF JUMPI JUMPDEST PUSH2 0x7B1 DUP2 DUP4 PUSH2 0x520 JUMP JUMPDEST DUP2 ADD SWAP1 PUSH2 0x6CA JUMP JUMPDEST CODESIZE PUSH2 0x758 JUMP JUMPDEST POP RETURNDATASIZE PUSH2 0x7A7 JUMP JUMPDEST PUSH2 0x6E9 JUMP JUMPDEST PUSH2 0x7D4 SWAP1 PUSH2 0x3F3 JUMP JUMPDEST SWAP1 JUMP JUMPDEST PUSH2 0x7E1 PUSH1 0x40 PUSH2 0x549 JUMP JUMPDEST SWAP1 JUMP JUMPDEST PUSH4 0x4E487B71 PUSH1 0xE0 SHL PUSH1 0x0 MSTORE PUSH1 0x0 PUSH1 0x4 MSTORE PUSH1 0x24 PUSH1 0x0 REVERT JUMPDEST PUSH1 0x0 SHL SWAP1 JUMP JUMPDEST SWAP1 PUSH2 0x80D PUSH1 0x0 NOT SWAP2 PUSH2 0x7FA JUMP JUMPDEST SWAP2 DUP2 NOT AND SWAP2 AND OR SWAP1 JUMP JUMPDEST SWAP1 JUMP JUMPDEST SWAP1 PUSH2 0x82F PUSH2 0x82A PUSH2 0x836 SWAP3 PUSH2 0x484 JUMP JUMPDEST PUSH2 0x817 JUMP JUMPDEST DUP3 SLOAD PUSH2 0x800 JUMP JUMPDEST SWAP1 SSTORE JUMP JUMPDEST PUSH2 0x844 SWAP1 MLOAD PUSH2 0xAE JUMP JUMPDEST SWAP1 JUMP JUMPDEST SWAP1 PUSH2 0x858 PUSH1 0x1 DUP1 PUSH1 0xA0 SHL SUB SWAP2 PUSH2 0x7FA JUMP JUMPDEST SWAP2 DUP2 NOT AND SWAP2 AND OR SWAP1 JUMP JUMPDEST SWAP1 JUMP JUMPDEST SWAP1 PUSH2 0x87A PUSH2 0x875 PUSH2 0x881 SWAP3 PUSH2 0x3FF JUMP JUMPDEST PUSH2 0x862 JUMP JUMPDEST DUP3 SLOAD PUSH2 0x847 JUMP JUMPDEST SWAP1 SSTORE JUMP JUMPDEST SWAP1 PUSH2 0x8B2 PUSH1 0x20 PUSH1 0x1 PUSH2 0x8B8 SWAP5 PUSH2 0x8AA PUSH1 0x0 DUP3 ADD PUSH2 0x8A4 PUSH1 0x0 DUP9 ADD PUSH2 0x5B2 JUMP JUMPDEST SWAP1 PUSH2 0x81A JUMP JUMPDEST ADD SWAP3 ADD PUSH2 0x83A JUMP JUMPDEST SWAP1 PUSH2 0x865 JUMP JUMPDEST JUMP JUMPDEST SWAP1 PUSH2 0x8C4 SWAP2 PUSH2 0x885 JUMP JUMPDEST JUMP JUMPDEST SWAP3 PUSH2 0x8D1 SWAP2 SWAP3 PUSH2 0x1575 JUMP JUMPDEST SWAP1 DUP2 PUSH2 0x8E6 PUSH2 0x8E0 PUSH1 0x0 PUSH2 0x5C2 JUMP JUMPDEST SWAP2 PUSH2 0xFD JUMP JUMPDEST GT ISZERO PUSH2 0xA51 JUMPI PUSH2 0x92C PUSH1 0x20 PUSH2 0x902 PUSH2 0x8FD DUP7 PUSH2 0x698 JUMP JUMPDEST PUSH2 0x6A4 JUMP JUMPDEST PUSH4 0x81812FC SWAP1 PUSH2 0x921 DUP6 SWAP3 PUSH2 0x915 PUSH2 0x93 JUMP JUMPDEST SWAP6 DUP7 SWAP5 DUP6 SWAP4 DUP5 SWAP4 PUSH2 0x6B5 JUMP JUMPDEST DUP4 MSTORE PUSH1 0x4 DUP4 ADD PUSH2 0x10D JUMP JUMPDEST SUB SWAP2 GAS STATICCALL SWAP1 DUP2 ISZERO PUSH2 0xA4C JUMPI PUSH1 0x0 SWAP2 PUSH2 0xA1E JUMPI JUMPDEST POP PUSH2 0x95A PUSH2 0x954 PUSH2 0x94F ADDRESS PUSH2 0x7CB JUMP JUMPDEST PUSH2 0xAE JUMP JUMPDEST SWAP2 PUSH2 0xAE JUMP JUMPDEST SUB PUSH2 0x9FB JUMPI PUSH2 0x9A0 DUP3 PUSH2 0x985 CALLER PUSH2 0x97C PUSH2 0x972 PUSH2 0x7D7 JUMP JUMPDEST SWAP4 PUSH1 0x0 DUP6 ADD PUSH2 0x4B8 JUMP JUMPDEST PUSH1 0x20 DUP4 ADD PUSH2 0x4F2 JUMP JUMPDEST PUSH2 0x99B PUSH2 0x994 PUSH1 0x1 DUP8 SWAP1 PUSH2 0x46C JUMP JUMPDEST DUP5 SWAP1 PUSH2 0x4A0 JUMP JUMPDEST PUSH2 0x8BA JUMP JUMPDEST CALLER SWAP3 SWAP1 SWAP2 SWAP3 PUSH2 0x9F6 PUSH2 0x9E4 PUSH2 0x9DE PUSH2 0x9D8 PUSH32 0xD547E933094F12A9159076970143EBE73234E64480317844B0DCB36117116DE4 SWAP5 PUSH2 0x3FF JUMP JUMPDEST SWAP5 PUSH2 0x3FF JUMP JUMPDEST SWAP5 PUSH2 0x484 JUMP JUMPDEST SWAP5 PUSH2 0x9ED PUSH2 0x93 JUMP JUMPDEST SWAP2 DUP3 SWAP2 DUP3 PUSH2 0x10D JUMP JUMPDEST SUB SWAP1 LOG4 JUMP JUMPDEST PUSH2 0xA03 PUSH2 0x93 JUMP JUMPDEST PUSH4 0x5BA2B87 PUSH1 0xE3 SHL DUP2 MSTORE DUP1 PUSH2 0xA1A PUSH1 0x4 DUP3 ADD PUSH2 0x1C3 JUMP JUMPDEST SUB SWAP1 REVERT JUMPDEST PUSH2 0xA3F SWAP2 POP PUSH1 0x20 RETURNDATASIZE DUP2 GT PUSH2 0xA45 JUMPI JUMPDEST PUSH2 0xA37 DUP2 DUP4 PUSH2 0x520 JUMP JUMPDEST DUP2 ADD SWAP1 PUSH2 0x6CA JUMP JUMPDEST CODESIZE PUSH2 0x93F JUMP JUMPDEST POP RETURNDATASIZE PUSH2 0xA2D JUMP JUMPDEST PUSH2 0x6E9 JUMP JUMPDEST PUSH2 0xA59 PUSH2 0x93 JUMP JUMPDEST PUSH4 0xE1ABBFC5 PUSH1 0xE0 SHL DUP2 MSTORE DUP1 PUSH2 0xA70 PUSH1 0x4 DUP3 ADD PUSH2 0x1C3 JUMP JUMPDEST SUB SWAP1 REVERT JUMPDEST SWAP1 PUSH2 0xA80 SWAP4 SWAP3 SWAP2 PUSH2 0x60F JUMP JUMPDEST JUMP JUMPDEST PUSH1 0x0 SWAP1 JUMP JUMPDEST PUSH1 0x0 SWAP1 JUMP JUMPDEST PUSH2 0xA94 PUSH2 0x55E JUMP JUMPDEST SWAP1 PUSH1 0x20 DUP1 DUP4 PUSH2 0xAA1 PUSH2 0xA82 JUMP JUMPDEST DUP2 MSTORE ADD PUSH2 0xAAC PUSH2 0xA87 JUMP JUMPDEST DUP2 MSTORE POP POP JUMP JUMPDEST PUSH2 0xABA PUSH2 0xA8C JUMP JUMPDEST SWAP1 JUMP JUMPDEST PUSH2 0xAE2 SWAP2 PUSH2 0xAD8 PUSH2 0xADD SWAP3 PUSH2 0xAD0 PUSH2 0xAB2 JUMP JUMPDEST POP PUSH1 0x1 PUSH2 0x46C JUMP JUMPDEST PUSH2 0x4A0 JUMP JUMPDEST PUSH2 0x5A6 JUMP JUMPDEST SWAP1 JUMP JUMPDEST SWAP1 DUP2 PUSH2 0xB26 PUSH1 0x20 DUP4 PUSH2 0xAFF PUSH2 0xAFA CALLER SWAP6 PUSH2 0x698 JUMP JUMPDEST PUSH2 0x6A4 JUMP JUMPDEST PUSH2 0xB1B PUSH4 0x6352211E PUSH2 0xB0F PUSH2 0x93 JUMP JUMPDEST SWAP6 DUP7 SWAP5 DUP6 SWAP4 DUP5 SWAP4 PUSH2 0x6B5 JUMP JUMPDEST DUP4 MSTORE PUSH1 0x4 DUP4 ADD PUSH2 0x10D JUMP JUMPDEST SUB SWAP2 GAS STATICCALL SWAP1 DUP2 ISZERO PUSH2 0xBAF JUMPI PUSH2 0xB4E SWAP2 PUSH2 0xB48 SWAP2 PUSH1 0x0 SWAP2 PUSH2 0xB81 JUMPI JUMPDEST POP SWAP3 PUSH2 0xAE JUMP JUMPDEST SWAP2 PUSH2 0xAE JUMP JUMPDEST SUB PUSH2 0xB5E JUMPI PUSH2 0xB5C SWAP2 PUSH2 0xBB4 JUMP JUMPDEST JUMP JUMPDEST PUSH2 0xB66 PUSH2 0x93 JUMP JUMPDEST PUSH4 0x30CD7471 PUSH1 0xE0 SHL DUP2 MSTORE DUP1 PUSH2 0xB7D PUSH1 0x4 DUP3 ADD PUSH2 0x1C3 JUMP JUMPDEST SUB SWAP1 REVERT JUMPDEST PUSH2 0xBA2 SWAP2 POP PUSH1 0x20 RETURNDATASIZE DUP2 GT PUSH2 0xBA8 JUMPI JUMPDEST PUSH2 0xB9A DUP2 DUP4 PUSH2 0x520 JUMP JUMPDEST DUP2 ADD SWAP1 PUSH2 0x6CA JUMP JUMPDEST CODESIZE PUSH2 0xB41 JUMP JUMPDEST POP RETURNDATASIZE PUSH2 0xB90 JUMP JUMPDEST PUSH2 0x6E9 JUMP JUMPDEST SWAP2 SWAP1 DUP3 DUP2 SWAP4 PUSH2 0xBE2 PUSH1 0x0 PUSH2 0xBDC PUSH2 0xBD7 PUSH2 0xBD0 PUSH1 0x1 DUP7 SWAP1 PUSH2 0x46C JUMP JUMPDEST DUP10 SWAP1 PUSH2 0x4A0 JUMP JUMPDEST PUSH2 0x5A6 JUMP JUMPDEST ADD PUSH2 0x5B2 JUMP JUMPDEST PUSH2 0xBF5 PUSH2 0xBEF PUSH1 0x0 PUSH2 0x5C2 JUMP JUMPDEST SWAP2 PUSH2 0xFD JUMP JUMPDEST GT ISZERO PUSH2 0xC09 JUMPI POP PUSH2 0xC07 SWAP3 SWAP4 POP PUSH2 0xCBD JUMP JUMPDEST JUMP JUMPDEST DUP5 SWAP1 PUSH2 0xC2C PUSH2 0xC16 PUSH2 0x93 JUMP JUMPDEST SWAP3 DUP4 SWAP3 PUSH4 0xB4E86D4B PUSH1 0xE0 SHL DUP5 MSTORE PUSH1 0x4 DUP5 ADD PUSH2 0x5EB JUMP JUMPDEST SUB SWAP1 REVERT JUMPDEST SHL SWAP1 JUMP JUMPDEST SWAP2 SWAP1 PUSH1 0x8 PUSH2 0xC50 SWAP2 MUL SWAP2 PUSH2 0xC4A PUSH1 0x0 NOT DUP5 PUSH2 0xC30 JUMP JUMPDEST SWAP3 PUSH2 0xC30 JUMP JUMPDEST SWAP2 DUP2 NOT AND SWAP2 AND OR SWAP1 JUMP JUMPDEST SWAP2 SWAP1 PUSH2 0xC70 PUSH2 0xC6B PUSH2 0xC78 SWAP4 PUSH2 0x484 JUMP JUMPDEST PUSH2 0x817 JUMP JUMPDEST SWAP1 DUP4 SLOAD PUSH2 0xC34 JUMP JUMPDEST SWAP1 SSTORE JUMP JUMPDEST PUSH2 0xC8E SWAP2 PUSH2 0xC88 PUSH2 0x3CF JUMP JUMPDEST SWAP2 PUSH2 0xC5A JUMP JUMPDEST JUMP JUMPDEST PUSH1 0x1 PUSH1 0x0 SWAP2 PUSH2 0xCA1 DUP4 DUP1 DUP4 ADD PUSH2 0xC7C JUMP JUMPDEST ADD SSTORE JUMP JUMPDEST SWAP1 PUSH1 0x0 SUB PUSH2 0xCB8 JUMPI PUSH2 0xCB6 SWAP1 PUSH2 0xC90 JUMP JUMPDEST JUMP JUMPDEST PUSH2 0x7E4 JUMP JUMPDEST SWAP1 PUSH2 0xCDE PUSH1 0x0 PUSH2 0xCD9 PUSH2 0xCD2 PUSH1 0x1 DUP7 SWAP1 PUSH2 0x46C JUMP JUMPDEST DUP5 SWAP1 PUSH2 0x4A0 JUMP JUMPDEST PUSH2 0xCA5 JUMP JUMPDEST CALLER SWAP2 PUSH2 0xD1C PUSH2 0xD16 PUSH2 0xD10 PUSH32 0x6E08C1D889D309942730E4AFA7963D0C5294A34A479F2C8CF39A953F287DCDEE SWAP6 PUSH2 0x3FF JUMP JUMPDEST SWAP3 PUSH2 0x3FF JUMP JUMPDEST SWAP3 PUSH2 0x484 JUMP JUMPDEST SWAP3 PUSH2 0xD25 PUSH2 0x93 JUMP JUMPDEST DUP1 PUSH2 0xD2F DUP2 PUSH2 0x1C3 JUMP JUMPDEST SUB SWAP1 LOG4 JUMP JUMPDEST SWAP1 PUSH2 0xD3E SWAP2 PUSH2 0xAE5 JUMP JUMPDEST JUMP JUMPDEST PUSH2 0xD48 PUSH2 0x1662 JUMP JUMPDEST PUSH2 0xD50 PUSH2 0xE0E JUMP JUMPDEST PUSH2 0xD58 PUSH2 0x16ED JUMP JUMPDEST JUMP JUMPDEST PUSH2 0xD63 SWAP1 PUSH2 0x3D7 JUMP JUMPDEST SWAP1 JUMP JUMPDEST PUSH2 0xD6F SWAP1 PUSH2 0xD5A JUMP JUMPDEST SWAP1 JUMP JUMPDEST PUSH2 0xD7B SWAP1 PUSH2 0x3F3 JUMP JUMPDEST SWAP1 JUMP JUMPDEST SWAP1 POP SWAP1 JUMP JUMPDEST PUSH2 0xD8F PUSH1 0x0 DUP1 SWAP3 PUSH2 0xD7E JUMP JUMPDEST ADD SWAP1 JUMP JUMPDEST PUSH2 0xD9C SWAP1 PUSH2 0xD83 JUMP JUMPDEST SWAP1 JUMP JUMPDEST PUSH8 0xFFFFFFFFFFFFFFFF DUP2 GT PUSH2 0xDBD JUMPI PUSH2 0xDB9 PUSH1 0x20 SWAP2 PUSH2 0x500 JUMP JUMPDEST ADD SWAP1 JUMP JUMPDEST PUSH2 0x50A JUMP JUMPDEST SWAP1 PUSH2 0xDD4 PUSH2 0xDCF DUP4 PUSH2 0xD9F JUMP JUMPDEST PUSH2 0x549 JUMP JUMPDEST SWAP2 DUP3 MSTORE JUMP JUMPDEST PUSH1 0x60 SWAP1 JUMP JUMPDEST RETURNDATASIZE PUSH1 0x0 EQ PUSH2 0xDFB JUMPI PUSH2 0xDEF RETURNDATASIZE PUSH2 0xDC2 JUMP JUMPDEST SWAP1 RETURNDATASIZE PUSH1 0x0 PUSH1 0x20 DUP5 ADD RETURNDATACOPY JUMPDEST JUMP JUMPDEST PUSH2 0xE03 PUSH2 0xDD9 JUMP JUMPDEST SWAP1 PUSH2 0xDF9 JUMP JUMPDEST ISZERO ISZERO SWAP1 JUMP JUMPDEST PUSH2 0xE22 PUSH2 0xE1D PUSH1 0x2 CALLER SWAP1 PUSH2 0x40B JUMP JUMPDEST PUSH2 0x440 JUMP JUMPDEST DUP1 PUSH2 0xE36 PUSH2 0xE30 PUSH1 0x0 PUSH2 0x5C2 JUMP JUMPDEST SWAP2 PUSH2 0xFD JUMP JUMPDEST GT ISZERO PUSH2 0xEC1 JUMPI PUSH1 0x0 DUP1 PUSH2 0xE98 SWAP3 PUSH2 0xE60 PUSH2 0xE4F DUP4 PUSH2 0x5C2 JUMP JUMPDEST PUSH2 0xE5B PUSH1 0x2 CALLER SWAP1 PUSH2 0x40B JUMP JUMPDEST PUSH2 0x81A JUMP JUMPDEST PUSH2 0xE71 PUSH2 0xE6C CALLER PUSH2 0xD66 JUMP JUMPDEST PUSH2 0xD72 JUMP JUMPDEST SWAP1 PUSH2 0xE7A PUSH2 0x93 JUMP JUMPDEST SWAP1 DUP2 PUSH2 0xE85 DUP2 PUSH2 0xD93 JUMP JUMPDEST SUB SWAP3 GAS CALL PUSH2 0xE91 PUSH2 0xDDE JUMP JUMPDEST POP ISZERO PUSH2 0xE09 JUMP JUMPDEST PUSH2 0xE9E JUMPI JUMP JUMPDEST PUSH2 0xEA6 PUSH2 0x93 JUMP JUMPDEST PUSH4 0x12171D83 PUSH1 0xE3 SHL DUP2 MSTORE DUP1 PUSH2 0xEBD PUSH1 0x4 DUP3 ADD PUSH2 0x1C3 JUMP JUMPDEST SUB SWAP1 REVERT JUMPDEST PUSH2 0xEC9 PUSH2 0x93 JUMP JUMPDEST PUSH4 0xC4D8FA87 PUSH1 0xE0 SHL DUP2 MSTORE DUP1 PUSH2 0xEE0 PUSH1 0x4 DUP3 ADD PUSH2 0x1C3 JUMP JUMPDEST SUB SWAP1 REVERT JUMPDEST PUSH2 0xEEC PUSH2 0xD40 JUMP JUMPDEST JUMP JUMPDEST SWAP2 SWAP1 DUP3 DUP2 SWAP4 PUSH2 0xF1C PUSH1 0x0 PUSH2 0xF16 PUSH2 0xF11 PUSH2 0xF0A PUSH1 0x1 DUP7 SWAP1 PUSH2 0x46C JUMP JUMPDEST DUP10 SWAP1 PUSH2 0x4A0 JUMP JUMPDEST PUSH2 0x5A6 JUMP JUMPDEST ADD PUSH2 0x5B2 JUMP JUMPDEST PUSH2 0xF2F PUSH2 0xF29 PUSH1 0x0 PUSH2 0x5C2 JUMP JUMPDEST SWAP2 PUSH2 0xFD JUMP JUMPDEST GT ISZERO PUSH2 0xF43 JUMPI POP PUSH2 0xF41 SWAP3 SWAP4 POP PUSH2 0xF6A JUMP JUMPDEST JUMP JUMPDEST DUP5 SWAP1 PUSH2 0xF66 PUSH2 0xF50 PUSH2 0x93 JUMP JUMPDEST SWAP3 DUP4 SWAP3 PUSH4 0xB4E86D4B PUSH1 0xE0 SHL DUP5 MSTORE PUSH1 0x4 DUP5 ADD PUSH2 0x5EB JUMP JUMPDEST SUB SWAP1 REVERT JUMPDEST SWAP1 PUSH2 0xF7C SWAP2 PUSH2 0xF77 PUSH2 0x1662 JUMP JUMPDEST PUSH2 0x1037 JUMP JUMPDEST PUSH2 0xF84 PUSH2 0x16ED JUMP JUMPDEST JUMP JUMPDEST PUSH1 0x40 SWAP1 PUSH2 0xFB0 PUSH2 0xFB7 SWAP5 SWAP7 SWAP6 SWAP4 SWAP7 PUSH2 0xFA6 PUSH1 0x60 DUP5 ADD SWAP9 PUSH1 0x0 DUP6 ADD SWAP1 PUSH2 0x5DE JUMP JUMPDEST PUSH1 0x20 DUP4 ADD SWAP1 PUSH2 0x100 JUMP JUMPDEST ADD SWAP1 PUSH2 0x100 JUMP JUMPDEST JUMP JUMPDEST PUSH4 0x4E487B71 PUSH1 0xE0 SHL PUSH1 0x0 MSTORE PUSH1 0x11 PUSH1 0x4 MSTORE PUSH1 0x24 PUSH1 0x0 REVERT JUMPDEST PUSH2 0xFDE PUSH2 0xFE4 SWAP2 SWAP4 SWAP3 SWAP4 PUSH2 0xFD JUMP JUMPDEST SWAP3 PUSH2 0xFD JUMP JUMPDEST DUP3 ADD DUP1 SWAP3 GT PUSH2 0xFEF JUMPI JUMP JUMPDEST PUSH2 0xFB9 JUMP JUMPDEST PUSH1 0x0 SWAP2 SUB SLT PUSH2 0xFFF JUMPI JUMP JUMPDEST PUSH2 0x9E JUMP JUMPDEST PUSH1 0x40 SWAP1 PUSH2 0x102E PUSH2 0x1035 SWAP5 SWAP7 SWAP6 SWAP4 SWAP7 PUSH2 0x1024 PUSH1 0x60 DUP5 ADD SWAP9 PUSH1 0x0 DUP6 ADD SWAP1 PUSH2 0x5DE JUMP JUMPDEST PUSH1 0x20 DUP4 ADD SWAP1 PUSH2 0x5DE JUMP JUMPDEST ADD SWAP1 PUSH2 0x100 JUMP JUMPDEST JUMP JUMPDEST SWAP1 PUSH2 0x1056 PUSH2 0x1051 PUSH2 0x104A PUSH1 0x1 DUP6 SWAP1 PUSH2 0x46C JUMP JUMPDEST DUP4 SWAP1 PUSH2 0x4A0 JUMP JUMPDEST PUSH2 0x5A6 JUMP JUMPDEST SWAP1 CALLVALUE PUSH2 0x1075 PUSH2 0x106F PUSH2 0x106A PUSH1 0x0 DUP7 ADD PUSH2 0x5B2 JUMP JUMPDEST PUSH2 0xFD JUMP JUMPDEST SWAP2 PUSH2 0xFD JUMP JUMPDEST LT PUSH2 0x11D1 JUMPI PUSH2 0x10AD CALLVALUE PUSH2 0x10A7 PUSH2 0x1098 PUSH1 0x2 PUSH2 0x1092 PUSH1 0x20 DUP9 ADD PUSH2 0x83A JUMP JUMPDEST SWAP1 PUSH2 0x40B JUMP JUMPDEST SWAP2 PUSH2 0x10A2 DUP4 PUSH2 0x440 JUMP JUMPDEST PUSH2 0xFCF JUMP JUMPDEST SWAP1 PUSH2 0x81A JUMP JUMPDEST PUSH2 0x10CD PUSH1 0x0 PUSH2 0x10C8 PUSH2 0x10C1 PUSH1 0x1 DUP8 SWAP1 PUSH2 0x46C JUMP JUMPDEST DUP5 SWAP1 PUSH2 0x4A0 JUMP JUMPDEST PUSH2 0xCA5 JUMP JUMPDEST PUSH2 0x10DE PUSH2 0x10D9 DUP5 PUSH2 0x698 JUMP JUMPDEST PUSH2 0x6A4 JUMP JUMPDEST PUSH4 0x42842E0E PUSH2 0x10EF PUSH1 0x20 DUP6 ADD PUSH2 0x83A JUMP JUMPDEST CALLER SWAP3 DUP5 SWAP3 DUP2 EXTCODESIZE ISZERO PUSH2 0x11CC JUMPI PUSH1 0x0 PUSH2 0x1119 SWAP2 PUSH2 0x1124 DUP3 SWAP7 PUSH2 0x110D PUSH2 0x93 JUMP JUMPDEST SWAP9 DUP10 SWAP8 DUP9 SWAP7 DUP8 SWAP6 PUSH2 0x6B5 JUMP JUMPDEST DUP6 MSTORE PUSH1 0x4 DUP6 ADD PUSH2 0x1004 JUMP JUMPDEST SUB SWAP3 GAS CALL DUP1 ISZERO PUSH2 0x11C7 JUMPI PUSH2 0x119A JUMPI JUMPDEST POP PUSH2 0x1143 PUSH1 0x0 CALLER SWAP5 SWAP3 SWAP4 ADD PUSH2 0x5B2 JUMP JUMPDEST SWAP3 PUSH2 0x1195 PUSH2 0x1183 PUSH2 0x117D PUSH2 0x1177 PUSH32 0x263223B1DD81E51054A4E6F791D45A4A1DDB4AADCD93A2DFD892615C3FDAC187 SWAP5 PUSH2 0x3FF JUMP JUMPDEST SWAP5 PUSH2 0x3FF JUMP JUMPDEST SWAP5 PUSH2 0x484 JUMP JUMPDEST SWAP5 PUSH2 0x118C PUSH2 0x93 JUMP JUMPDEST SWAP2 DUP3 SWAP2 DUP3 PUSH2 0x10D JUMP JUMPDEST SUB SWAP1 LOG4 JUMP JUMPDEST PUSH2 0x11BA SWAP1 PUSH1 0x0 RETURNDATASIZE DUP2 GT PUSH2 0x11C0 JUMPI JUMPDEST PUSH2 0x11B2 DUP2 DUP4 PUSH2 0x520 JUMP JUMPDEST DUP2 ADD SWAP1 PUSH2 0xFF4 JUMP JUMPDEST CODESIZE PUSH2 0x1133 JUMP JUMPDEST POP RETURNDATASIZE PUSH2 0x11A8 JUMP JUMPDEST PUSH2 0x6E9 JUMP JUMPDEST PUSH2 0x6B0 JUMP JUMPDEST PUSH2 0x1200 PUSH2 0x11E2 PUSH1 0x0 DUP6 SWAP4 SWAP5 ADD PUSH2 0x5B2 JUMP JUMPDEST PUSH2 0x11EA PUSH2 0x93 JUMP JUMPDEST SWAP4 DUP5 SWAP4 PUSH4 0x711F4B23 PUSH1 0xE0 SHL DUP6 MSTORE PUSH1 0x4 DUP6 ADD PUSH2 0xF86 JUMP JUMPDEST SUB SWAP1 REVERT JUMPDEST SWAP1 PUSH2 0x120E SWAP2 PUSH2 0xEEE JUMP JUMPDEST JUMP JUMPDEST SWAP3 SWAP2 SWAP1 DUP4 DUP2 SWAP5 PUSH2 0x123F PUSH1 0x0 PUSH2 0x1239 PUSH2 0x1234 PUSH2 0x122D PUSH1 0x1 DUP7 SWAP1 PUSH2 0x46C JUMP JUMPDEST DUP11 SWAP1 PUSH2 0x4A0 JUMP JUMPDEST PUSH2 0x5A6 JUMP JUMPDEST ADD PUSH2 0x5B2 JUMP JUMPDEST PUSH2 0x1252 PUSH2 0x124C PUSH1 0x0 PUSH2 0x5C2 JUMP JUMPDEST SWAP2 PUSH2 0xFD JUMP JUMPDEST GT ISZERO PUSH2 0x1266 JUMPI POP PUSH2 0x1264 SWAP4 SWAP5 POP PUSH2 0x128D JUMP JUMPDEST JUMP JUMPDEST DUP6 SWAP1 PUSH2 0x1289 PUSH2 0x1273 PUSH2 0x93 JUMP JUMPDEST SWAP3 DUP4 SWAP3 PUSH4 0xB4E86D4B PUSH1 0xE0 SHL DUP5 MSTORE PUSH1 0x4 DUP5 ADD PUSH2 0x5EB JUMP JUMPDEST SUB SWAP1 REVERT JUMPDEST SWAP2 SWAP1 DUP3 PUSH2 0x12CF PUSH1 0x20 DUP4 PUSH2 0x12A8 PUSH2 0x12A3 CALLER SWAP6 PUSH2 0x698 JUMP JUMPDEST PUSH2 0x6A4 JUMP JUMPDEST PUSH2 0x12C4 PUSH4 0x6352211E PUSH2 0x12B8 PUSH2 0x93 JUMP JUMPDEST SWAP6 DUP7 SWAP5 DUP6 SWAP4 DUP5 SWAP4 PUSH2 0x6B5 JUMP JUMPDEST DUP4 MSTORE PUSH1 0x4 DUP4 ADD PUSH2 0x10D JUMP JUMPDEST SUB SWAP2 GAS STATICCALL SWAP1 DUP2 ISZERO PUSH2 0x1358 JUMPI PUSH2 0x12F7 SWAP2 PUSH2 0x12F1 SWAP2 PUSH1 0x0 SWAP2 PUSH2 0x132A JUMPI JUMPDEST POP SWAP3 PUSH2 0xAE JUMP JUMPDEST SWAP2 PUSH2 0xAE JUMP JUMPDEST SUB PUSH2 0x1307 JUMPI PUSH2 0x1305 SWAP3 PUSH2 0x135D JUMP JUMPDEST JUMP JUMPDEST PUSH2 0x130F PUSH2 0x93 JUMP JUMPDEST PUSH4 0x30CD7471 PUSH1 0xE0 SHL DUP2 MSTORE DUP1 PUSH2 0x1326 PUSH1 0x4 DUP3 ADD PUSH2 0x1C3 JUMP JUMPDEST SUB SWAP1 REVERT JUMPDEST PUSH2 0x134B SWAP2 POP PUSH1 0x20 RETURNDATASIZE DUP2 GT PUSH2 0x1351 JUMPI JUMPDEST PUSH2 0x1343 DUP2 DUP4 PUSH2 0x520 JUMP JUMPDEST DUP2 ADD SWAP1 PUSH2 0x6CA JUMP JUMPDEST CODESIZE PUSH2 0x12EA JUMP JUMPDEST POP RETURNDATASIZE PUSH2 0x1339 JUMP JUMPDEST PUSH2 0x6E9 JUMP JUMPDEST SWAP2 SWAP1 PUSH2 0x1381 DUP3 PUSH1 0x0 PUSH2 0x137B PUSH2 0x1374 PUSH1 0x1 DUP9 SWAP1 PUSH2 0x46C JUMP JUMPDEST DUP6 SWAP1 PUSH2 0x4A0 JUMP JUMPDEST ADD PUSH2 0x81A JUMP JUMPDEST CALLER SWAP3 SWAP1 SWAP2 SWAP3 PUSH2 0x13D7 PUSH2 0x13C5 PUSH2 0x13BF PUSH2 0x13B9 PUSH32 0xD547E933094F12A9159076970143EBE73234E64480317844B0DCB36117116DE4 SWAP5 PUSH2 0x3FF JUMP JUMPDEST SWAP5 PUSH2 0x3FF JUMP JUMPDEST SWAP5 PUSH2 0x484 JUMP JUMPDEST SWAP5 PUSH2 0x13CE PUSH2 0x93 JUMP JUMPDEST SWAP2 DUP3 SWAP2 DUP3 PUSH2 0x10D JUMP JUMPDEST SUB SWAP1 LOG4 JUMP JUMPDEST SWAP1 PUSH2 0x13E7 SWAP3 SWAP2 PUSH2 0x1210 JUMP JUMPDEST JUMP JUMPDEST PUSH2 0x13F2 SWAP1 PUSH2 0x3D7 JUMP JUMPDEST SWAP1 JUMP JUMPDEST PUSH2 0x13FE SWAP1 PUSH2 0x13E9 JUMP JUMPDEST SWAP1 JUMP JUMPDEST PUSH2 0x140A SWAP1 PUSH2 0x3F3 JUMP JUMPDEST SWAP1 JUMP JUMPDEST PUSH10 0xFFFFFFFFFFFFFFFFFFFF AND SWAP1 JUMP JUMPDEST PUSH2 0x1425 DUP2 PUSH2 0x140D JUMP JUMPDEST SUB PUSH2 0x142C JUMPI JUMP JUMPDEST PUSH1 0x0 DUP1 REVERT JUMPDEST SWAP1 POP MLOAD SWAP1 PUSH2 0x143E DUP3 PUSH2 0x141C JUMP JUMPDEST JUMP JUMPDEST SWAP1 JUMP JUMPDEST PUSH2 0x144C DUP2 PUSH2 0x1440 JUMP JUMPDEST SUB PUSH2 0x1453 JUMPI JUMP JUMPDEST PUSH1 0x0 DUP1 REVERT JUMPDEST SWAP1 POP MLOAD SWAP1 PUSH2 0x1465 DUP3 PUSH2 0x1443 JUMP JUMPDEST JUMP JUMPDEST SWAP1 POP MLOAD SWAP1 PUSH2 0x1474 DUP3 PUSH2 0x158 JUMP JUMPDEST JUMP JUMPDEST SWAP2 SWAP1 PUSH1 0xA0 DUP4 DUP3 SUB SLT PUSH2 0x14C8 JUMPI PUSH2 0x148F DUP2 PUSH1 0x0 DUP6 ADD PUSH2 0x1431 JUMP JUMPDEST SWAP3 PUSH2 0x149D DUP3 PUSH1 0x20 DUP4 ADD PUSH2 0x1458 JUMP JUMPDEST SWAP3 PUSH2 0x14C5 PUSH2 0x14AE DUP5 PUSH1 0x40 DUP6 ADD PUSH2 0x1467 JUMP JUMPDEST SWAP4 PUSH2 0x14BC DUP2 PUSH1 0x60 DUP7 ADD PUSH2 0x1467 JUMP JUMPDEST SWAP4 PUSH1 0x80 ADD PUSH2 0x1431 JUMP JUMPDEST SWAP1 JUMP JUMPDEST PUSH2 0x9E JUMP JUMPDEST PUSH2 0x14E1 PUSH2 0x14DC PUSH2 0x14E6 SWAP3 PUSH2 0x1440 JUMP JUMPDEST PUSH2 0x3D4 JUMP JUMPDEST PUSH2 0xFD JUMP JUMPDEST SWAP1 JUMP JUMPDEST PUSH2 0x14F8 PUSH2 0x14FE SWAP2 SWAP4 SWAP3 SWAP4 PUSH2 0xFD JUMP JUMPDEST SWAP3 PUSH2 0xFD JUMP JUMPDEST SWAP2 PUSH2 0x150A DUP4 DUP3 MUL PUSH2 0xFD JUMP JUMPDEST SWAP3 DUP2 DUP5 DIV EQ SWAP1 ISZERO OR ISZERO PUSH2 0x1519 JUMPI JUMP JUMPDEST PUSH2 0xFB9 JUMP JUMPDEST SWAP1 JUMP JUMPDEST PUSH2 0x1535 PUSH2 0x1530 PUSH2 0x153A SWAP3 PUSH2 0x151E JUMP JUMPDEST PUSH2 0x3D4 JUMP JUMPDEST PUSH2 0xFD JUMP JUMPDEST SWAP1 JUMP JUMPDEST PUSH4 0x4E487B71 PUSH1 0xE0 SHL PUSH1 0x0 MSTORE PUSH1 0x12 PUSH1 0x4 MSTORE PUSH1 0x24 PUSH1 0x0 REVERT JUMPDEST PUSH2 0x155F PUSH2 0x1565 SWAP2 PUSH2 0xFD JUMP JUMPDEST SWAP2 PUSH2 0xFD JUMP JUMPDEST SWAP1 DUP2 ISZERO PUSH2 0x1570 JUMPI DIV SWAP1 JUMP JUMPDEST PUSH2 0x153D JUMP JUMPDEST PUSH1 0xA0 PUSH2 0x1594 PUSH2 0x158F PUSH2 0x15AA SWAP5 PUSH2 0x1589 PUSH2 0x3CF JUMP JUMPDEST POP PUSH2 0x13F5 JUMP JUMPDEST PUSH2 0x1401 JUMP JUMPDEST PUSH4 0xFEAF968C SWAP1 PUSH2 0x15A2 PUSH2 0x93 JUMP JUMPDEST SWAP5 DUP6 SWAP3 PUSH2 0x6B5 JUMP JUMPDEST DUP3 MSTORE DUP2 DUP1 PUSH2 0x15BA PUSH1 0x4 DUP3 ADD PUSH2 0x1C3 JUMP JUMPDEST SUB SWAP2 GAS STATICCALL SWAP1 DUP2 ISZERO PUSH2 0x1631 JUMPI PUSH2 0x15E1 PUSH2 0x15E6 SWAP3 PUSH2 0x15FD SWAP5 PUSH1 0x0 DUP1 SWAP3 SWAP1 POP PUSH2 0x1600 JUMPI JUMPDEST POP PUSH2 0x14CD JUMP JUMPDEST PUSH2 0x14E9 JUMP JUMPDEST PUSH2 0x15F7 PUSH8 0xDE0B6B3A7640000 PUSH2 0x1521 JUMP JUMPDEST SWAP1 PUSH2 0x1553 JUMP JUMPDEST SWAP1 JUMP JUMPDEST PUSH2 0x1621 SWAP2 POP PUSH1 0xA0 RETURNDATASIZE DUP2 GT PUSH2 0x162A JUMPI JUMPDEST PUSH2 0x1619 DUP2 DUP4 PUSH2 0x520 JUMP JUMPDEST DUP2 ADD SWAP1 PUSH2 0x1476 JUMP JUMPDEST POP POP POP SWAP1 PUSH2 0x15DB JUMP JUMPDEST POP RETURNDATASIZE PUSH2 0x160F JUMP JUMPDEST PUSH2 0x6E9 JUMP JUMPDEST SWAP1 JUMP JUMPDEST PUSH2 0x164D PUSH2 0x1648 PUSH2 0x1652 SWAP3 PUSH2 0x1636 JUMP JUMPDEST PUSH2 0x3D4 JUMP JUMPDEST PUSH2 0xFD JUMP JUMPDEST SWAP1 JUMP JUMPDEST PUSH2 0x165F PUSH1 0x2 PUSH2 0x1639 JUMP JUMPDEST SWAP1 JUMP JUMPDEST PUSH2 0x166C PUSH1 0x0 PUSH2 0x440 JUMP JUMPDEST PUSH2 0x1685 PUSH2 0x167F PUSH2 0x167A PUSH2 0x1655 JUMP JUMPDEST PUSH2 0xFD JUMP JUMPDEST SWAP2 PUSH2 0xFD JUMP JUMPDEST EQ PUSH2 0x169E JUMPI PUSH2 0x169C PUSH2 0x1695 PUSH2 0x1655 JUMP JUMPDEST PUSH1 0x0 PUSH2 0x81A JUMP JUMPDEST JUMP JUMPDEST PUSH2 0x16A6 PUSH2 0x93 JUMP JUMPDEST PUSH4 0x3EE5AEB5 PUSH1 0xE0 SHL DUP2 MSTORE DUP1 PUSH2 0x16BD PUSH1 0x4 DUP3 ADD PUSH2 0x1C3 JUMP JUMPDEST SUB SWAP1 REVERT JUMPDEST SWAP1 JUMP JUMPDEST PUSH2 0x16D8 PUSH2 0x16D3 PUSH2 0x16DD SWAP3 PUSH2 0x16C1 JUMP JUMPDEST PUSH2 0x3D4 JUMP JUMPDEST PUSH2 0xFD JUMP JUMPDEST SWAP1 JUMP JUMPDEST PUSH2 0x16EA PUSH1 0x1 PUSH2 0x16C4 JUMP JUMPDEST SWAP1 JUMP JUMPDEST PUSH2 0x16FF PUSH2 0x16F8 PUSH2 0x16E0 JUMP JUMPDEST PUSH1 0x0 PUSH2 0x81A JUMP JUMPDEST JUMP INVALID LOG2 PUSH5 0x6970667358 0x22 SLT KECCAK256 DUP11 0xD3 0xD XOR 0x25 0x1E JUMPI RETURN 0xB4 GASLIMIT BLOBHASH 0xB3 EQ SELFBALANCE EXP STOP SWAP1 SAR 0xBB 0xAC JUMPI STOP PUSH20 0xB05B6AAFB2E5957CC964736F6C63430008180033 "
        },
        "methodIdentifiers": {
          "buyItem(address,uint256)": "9f37092a",
          "cancelItem(address,uint256)": "8f6d40d2",
          "getListing(address,uint256)": "88700d1c",
          "getProceeds(address)": "30cfeda9",
          "listItem(address,uint256,uint256,address)": "5930a88c",
          "updateListing(address,uint256,uint256)": "f772adf1",
          "withDrawProceed()": "9e02ad6e"
        }
      }
    }
  }
}